{
	"Source_Code/Error_Handling.sol": {
		"checkErrors": {
			"abi": [
				{
					"inputs": [],
					"name": "hello",
					"outputs": [],
					"stateMutability": "pure",
					"type": "function"
				},
				{
					"inputs": [],
					"name": "parshav",
					"outputs": [],
					"stateMutability": "pure",
					"type": "function"
				},
				{
					"inputs": [],
					"name": "singla",
					"outputs": [],
					"stateMutability": "pure",
					"type": "function"
				}
			],
			"devdoc": {
				"kind": "dev",
				"methods": {},
				"version": 1
			},
			"evm": {
				"assembly": "    /* \"Source_Code/Error_Handling.sol\":60:344  contract checkErrors{... */\n  mstore(0x40, 0x80)\n  callvalue\n  dup1\n  iszero\n  tag_1\n  jumpi\n  0x00\n  dup1\n  revert\ntag_1:\n  pop\n  dataSize(sub_0)\n  dup1\n  dataOffset(sub_0)\n  0x00\n  codecopy\n  0x00\n  return\nstop\n\nsub_0: assembly {\n        /* \"Source_Code/Error_Handling.sol\":60:344  contract checkErrors{... */\n      mstore(0x40, 0x80)\n      callvalue\n      dup1\n      iszero\n      tag_1\n      jumpi\n      0x00\n      dup1\n      revert\n    tag_1:\n      pop\n      jumpi(tag_2, lt(calldatasize, 0x04))\n      shr(0xe0, calldataload(0x00))\n      dup1\n      0x14c09458\n      eq\n      tag_3\n      jumpi\n      dup1\n      0x19ff1d21\n      eq\n      tag_4\n      jumpi\n      dup1\n      0x9f7e2cef\n      eq\n      tag_5\n      jumpi\n    tag_2:\n      0x00\n      dup1\n      revert\n        /* \"Source_Code/Error_Handling.sol\":170:232  function parshav() public pure {... */\n    tag_3:\n      tag_6\n      tag_7\n      jump\t// in\n    tag_6:\n      stop\n        /* \"Source_Code/Error_Handling.sol\":89:162  function hello() public pure{... */\n    tag_4:\n      tag_8\n      tag_9\n      jump\t// in\n    tag_8:\n      stop\n        /* \"Source_Code/Error_Handling.sol\":240:341  function singla() public pure {... */\n    tag_5:\n      tag_10\n      tag_11\n      jump\t// in\n    tag_10:\n      stop\n        /* \"Source_Code/Error_Handling.sol\":170:232  function parshav() public pure {... */\n    tag_7:\n        /* \"Source_Code/Error_Handling.sol\":222:223  5 */\n      0x05\n        /* \"Source_Code/Error_Handling.sol\":219:220  5 */\n      dup1\n        /* \"Source_Code/Error_Handling.sol\":219:223  5==5 */\n      eq\n        /* \"Source_Code/Error_Handling.sol\":212:224  assert(5==5) */\n      tag_13\n      jumpi\n      tag_14\n      tag_15\n      jump\t// in\n    tag_14:\n    tag_13:\n        /* \"Source_Code/Error_Handling.sol\":170:232  function parshav() public pure {... */\n      jump\t// out\n        /* \"Source_Code/Error_Handling.sol\":89:162  function hello() public pure{... */\n    tag_9:\n        /* \"Source_Code/Error_Handling.sol\":138:139  9 */\n      0x09\n        /* \"Source_Code/Error_Handling.sol\":136:137  5 */\n      0x05\n        /* \"Source_Code/Error_Handling.sol\":136:139  5>9 */\n      gt\n        /* \"Source_Code/Error_Handling.sol\":128:154  require(5>9, \"It's wrong\") */\n      tag_17\n      jumpi\n      mload(0x40)\n      0x08c379a000000000000000000000000000000000000000000000000000000000\n      dup2\n      mstore\n      0x04\n      add\n      tag_18\n      swap1\n      tag_19\n      jump\t// in\n    tag_18:\n      mload(0x40)\n      dup1\n      swap2\n      sub\n      swap1\n      revert\n    tag_17:\n        /* \"Source_Code/Error_Handling.sol\":89:162  function hello() public pure{... */\n      jump\t// out\n        /* \"Source_Code/Error_Handling.sol\":240:341  function singla() public pure {... */\n    tag_11:\n        /* \"Source_Code/Error_Handling.sol\":287:288  7 */\n      0x07\n        /* \"Source_Code/Error_Handling.sol\":284:285  5 */\n      0x05\n        /* \"Source_Code/Error_Handling.sol\":284:288  5!=7 */\n      eq\n        /* \"Source_Code/Error_Handling.sol\":281:334  if(5!=7)... */\n      tag_21\n      jumpi\n        /* \"Source_Code/Error_Handling.sol\":314:322  revert() */\n      0x00\n      dup1\n      revert\n        /* \"Source_Code/Error_Handling.sol\":281:334  if(5!=7)... */\n    tag_21:\n        /* \"Source_Code/Error_Handling.sol\":240:341  function singla() public pure {... */\n      jump\t// out\n        /* \"#utility.yul\":7:187   */\n    tag_15:\n        /* \"#utility.yul\":55:132   */\n      0x4e487b7100000000000000000000000000000000000000000000000000000000\n        /* \"#utility.yul\":52:53   */\n      0x00\n        /* \"#utility.yul\":45:133   */\n      mstore\n        /* \"#utility.yul\":152:156   */\n      0x01\n        /* \"#utility.yul\":149:150   */\n      0x04\n        /* \"#utility.yul\":142:157   */\n      mstore\n        /* \"#utility.yul\":176:180   */\n      0x24\n        /* \"#utility.yul\":173:174   */\n      0x00\n        /* \"#utility.yul\":166:181   */\n      revert\n        /* \"#utility.yul\":193:362   */\n    tag_22:\n        /* \"#utility.yul\":277:288   */\n      0x00\n        /* \"#utility.yul\":311:317   */\n      dup3\n        /* \"#utility.yul\":306:309   */\n      dup3\n        /* \"#utility.yul\":299:318   */\n      mstore\n        /* \"#utility.yul\":351:355   */\n      0x20\n        /* \"#utility.yul\":346:349   */\n      dup3\n        /* \"#utility.yul\":342:356   */\n      add\n        /* \"#utility.yul\":327:356   */\n      swap1\n      pop\n        /* \"#utility.yul\":193:362   */\n      swap3\n      swap2\n      pop\n      pop\n      jump\t// out\n        /* \"#utility.yul\":368:528   */\n    tag_23:\n        /* \"#utility.yul\":508:520   */\n      0x497427732077726f6e6700000000000000000000000000000000000000000000\n        /* \"#utility.yul\":504:505   */\n      0x00\n        /* \"#utility.yul\":496:502   */\n      dup3\n        /* \"#utility.yul\":492:506   */\n      add\n        /* \"#utility.yul\":485:521   */\n      mstore\n        /* \"#utility.yul\":368:528   */\n      pop\n      jump\t// out\n        /* \"#utility.yul\":534:900   */\n    tag_24:\n        /* \"#utility.yul\":676:679   */\n      0x00\n        /* \"#utility.yul\":697:764   */\n      tag_30\n        /* \"#utility.yul\":761:763   */\n      0x0a\n        /* \"#utility.yul\":756:759   */\n      dup4\n        /* \"#utility.yul\":697:764   */\n      tag_22\n      jump\t// in\n    tag_30:\n        /* \"#utility.yul\":690:764   */\n      swap2\n      pop\n        /* \"#utility.yul\":773:866   */\n      tag_31\n        /* \"#utility.yul\":862:865   */\n      dup3\n        /* \"#utility.yul\":773:866   */\n      tag_23\n      jump\t// in\n    tag_31:\n        /* \"#utility.yul\":891:893   */\n      0x20\n        /* \"#utility.yul\":886:889   */\n      dup3\n        /* \"#utility.yul\":882:894   */\n      add\n        /* \"#utility.yul\":875:894   */\n      swap1\n      pop\n        /* \"#utility.yul\":534:900   */\n      swap2\n      swap1\n      pop\n      jump\t// out\n        /* \"#utility.yul\":906:1325   */\n    tag_19:\n        /* \"#utility.yul\":1072:1076   */\n      0x00\n        /* \"#utility.yul\":1110:1112   */\n      0x20\n        /* \"#utility.yul\":1099:1108   */\n      dup3\n        /* \"#utility.yul\":1095:1113   */\n      add\n        /* \"#utility.yul\":1087:1113   */\n      swap1\n      pop\n        /* \"#utility.yul\":1159:1168   */\n      dup2\n        /* \"#utility.yul\":1153:1157   */\n      dup2\n        /* \"#utility.yul\":1149:1169   */\n      sub\n        /* \"#utility.yul\":1145:1146   */\n      0x00\n        /* \"#utility.yul\":1134:1143   */\n      dup4\n        /* \"#utility.yul\":1130:1147   */\n      add\n        /* \"#utility.yul\":1123:1170   */\n      mstore\n        /* \"#utility.yul\":1187:1318   */\n      tag_33\n        /* \"#utility.yul\":1313:1317   */\n      dup2\n        /* \"#utility.yul\":1187:1318   */\n      tag_24\n      jump\t// in\n    tag_33:\n        /* \"#utility.yul\":1179:1318   */\n      swap1\n      pop\n        /* \"#utility.yul\":906:1325   */\n      swap2\n      swap1\n      pop\n      jump\t// out\n\n    auxdata: 0xa26469706673582212203accd0d5f0c29a630b4418399bb7c8887fc6b3ca2e180fc479d235f510ab29de64736f6c634300081a0033\n}\n",
				"bytecode": {
					"linkReferences": {},
					"object": "6080604052348015600e575f80fd5b506101a48061001c5f395ff3fe608060405234801561000f575f80fd5b506004361061003f575f3560e01c806314c094581461004357806319ff1d211461004d5780639f7e2cef14610057575b5f80fd5b61004b610061565b005b610055610074565b005b61005f6100ba565b005b60058014610072576100716100c9565b5b565b60096005116100b8576040517f08c379a00000000000000000000000000000000000000000000000000000000081526004016100af90610150565b60405180910390fd5b565b60076005146100c7575f80fd5b565b7f4e487b71000000000000000000000000000000000000000000000000000000005f52600160045260245ffd5b5f82825260208201905092915050565b7f497427732077726f6e67000000000000000000000000000000000000000000005f82015250565b5f61013a600a836100f6565b915061014582610106565b602082019050919050565b5f6020820190508181035f8301526101678161012e565b905091905056fea26469706673582212203accd0d5f0c29a630b4418399bb7c8887fc6b3ca2e180fc479d235f510ab29de64736f6c634300081a0033",
					"opcodes": "PUSH1 0x80 PUSH1 0x40 MSTORE CALLVALUE DUP1 ISZERO PUSH1 0xE JUMPI PUSH0 DUP1 REVERT JUMPDEST POP PUSH2 0x1A4 DUP1 PUSH2 0x1C PUSH0 CODECOPY PUSH0 RETURN INVALID PUSH1 0x80 PUSH1 0x40 MSTORE CALLVALUE DUP1 ISZERO PUSH2 0xF JUMPI PUSH0 DUP1 REVERT JUMPDEST POP PUSH1 0x4 CALLDATASIZE LT PUSH2 0x3F JUMPI PUSH0 CALLDATALOAD PUSH1 0xE0 SHR DUP1 PUSH4 0x14C09458 EQ PUSH2 0x43 JUMPI DUP1 PUSH4 0x19FF1D21 EQ PUSH2 0x4D JUMPI DUP1 PUSH4 0x9F7E2CEF EQ PUSH2 0x57 JUMPI JUMPDEST PUSH0 DUP1 REVERT JUMPDEST PUSH2 0x4B PUSH2 0x61 JUMP JUMPDEST STOP JUMPDEST PUSH2 0x55 PUSH2 0x74 JUMP JUMPDEST STOP JUMPDEST PUSH2 0x5F PUSH2 0xBA JUMP JUMPDEST STOP JUMPDEST PUSH1 0x5 DUP1 EQ PUSH2 0x72 JUMPI PUSH2 0x71 PUSH2 0xC9 JUMP JUMPDEST JUMPDEST JUMP JUMPDEST PUSH1 0x9 PUSH1 0x5 GT PUSH2 0xB8 JUMPI PUSH1 0x40 MLOAD PUSH32 0x8C379A000000000000000000000000000000000000000000000000000000000 DUP2 MSTORE PUSH1 0x4 ADD PUSH2 0xAF SWAP1 PUSH2 0x150 JUMP JUMPDEST PUSH1 0x40 MLOAD DUP1 SWAP2 SUB SWAP1 REVERT JUMPDEST JUMP JUMPDEST PUSH1 0x7 PUSH1 0x5 EQ PUSH2 0xC7 JUMPI PUSH0 DUP1 REVERT JUMPDEST JUMP JUMPDEST PUSH32 0x4E487B7100000000000000000000000000000000000000000000000000000000 PUSH0 MSTORE PUSH1 0x1 PUSH1 0x4 MSTORE PUSH1 0x24 PUSH0 REVERT JUMPDEST PUSH0 DUP3 DUP3 MSTORE PUSH1 0x20 DUP3 ADD SWAP1 POP SWAP3 SWAP2 POP POP JUMP JUMPDEST PUSH32 0x497427732077726F6E6700000000000000000000000000000000000000000000 PUSH0 DUP3 ADD MSTORE POP JUMP JUMPDEST PUSH0 PUSH2 0x13A PUSH1 0xA DUP4 PUSH2 0xF6 JUMP JUMPDEST SWAP2 POP PUSH2 0x145 DUP3 PUSH2 0x106 JUMP JUMPDEST PUSH1 0x20 DUP3 ADD SWAP1 POP SWAP2 SWAP1 POP JUMP JUMPDEST PUSH0 PUSH1 0x20 DUP3 ADD SWAP1 POP DUP2 DUP2 SUB PUSH0 DUP4 ADD MSTORE PUSH2 0x167 DUP2 PUSH2 0x12E JUMP JUMPDEST SWAP1 POP SWAP2 SWAP1 POP JUMP INVALID LOG2 PUSH5 0x6970667358 0x22 SLT KECCAK256 GASPRICE 0xCC 0xD0 0xD5 CREATE 0xC2 SWAP11 PUSH4 0xB441839 SWAP12 0xB7 0xC8 DUP9 PUSH32 0xC6B3CA2E180FC479D235F510AB29DE64736F6C634300081A0033000000000000 "
				},
				"gasEstimates": {
					"creation": {
						"codeDepositCost": "84000",
						"executionCost": "133",
						"totalCost": "84133"
					},
					"external": {
						"hello()": "450",
						"parshav()": "144",
						"singla()": "183"
					}
				},
				"methodIdentifiers": {
					"hello()": "19ff1d21",
					"parshav()": "14c09458",
					"singla()": "9f7e2cef"
				}
			},
			"storageLayout": {
				"storage": [],
				"types": null
			},
			"userdoc": {
				"kind": "user",
				"methods": {},
				"version": 1
			}
		}
	}
}