{
	"Source_Code/Variables_Functions.sol": {
		"mychain": {
			"abi": [
				{
					"inputs": [],
					"name": "iAmPublic",
					"outputs": [],
					"stateMutability": "nonpayable",
					"type": "function"
				},
				{
					"inputs": [],
					"name": "myvar",
					"outputs": [
						{
							"internalType": "uint256",
							"name": "",
							"type": "uint256"
						}
					],
					"stateMutability": "view",
					"type": "function"
				},
				{
					"inputs": [],
					"name": "random",
					"outputs": [],
					"stateMutability": "nonpayable",
					"type": "function"
				}
			],
			"devdoc": {
				"kind": "dev",
				"methods": {},
				"version": 1
			},
			"evm": {
				"assembly": "    /* \"Source_Code/Variables_Functions.sol\":60:504  contract mychain {... */\n  mstore(0x40, 0x80)\n    /* \"Source_Code/Variables_Functions.sol\":137:138  0 */\n  0x00\n    /* \"Source_Code/Variables_Functions.sol\":117:138  int private coins = 0 */\n  dup1\n  sstore\n    /* \"Source_Code/Variables_Functions.sol\":168:169  0 */\n  0x00\n    /* \"Source_Code/Variables_Functions.sol\":145:169  uint internal iamvar = 0 */\n  0x01\n  sstore\n    /* \"Source_Code/Variables_Functions.sol\":196:197  0 */\n  0x00\n    /* \"Source_Code/Variables_Functions.sol\":176:197  uint public myvar = 0 */\n  0x02\n  sstore\n    /* \"Source_Code/Variables_Functions.sol\":60:504  contract mychain {... */\n  callvalue\n  dup1\n  iszero\n  tag_1\n  jumpi\n  0x00\n  dup1\n  revert\ntag_1:\n  pop\n  dataSize(sub_0)\n  dup1\n  dataOffset(sub_0)\n  0x00\n  codecopy\n  0x00\n  return\nstop\n\nsub_0: assembly {\n        /* \"Source_Code/Variables_Functions.sol\":60:504  contract mychain {... */\n      mstore(0x40, 0x80)\n      callvalue\n      dup1\n      iszero\n      tag_1\n      jumpi\n      0x00\n      dup1\n      revert\n    tag_1:\n      pop\n      jumpi(tag_2, lt(calldatasize, 0x04))\n      shr(0xe0, calldataload(0x00))\n      dup1\n      0x03c45fef\n      eq\n      tag_3\n      jumpi\n      dup1\n      0x5ec01e4d\n      eq\n      tag_4\n      jumpi\n      dup1\n      0xc358838e\n      eq\n      tag_5\n      jumpi\n    tag_2:\n      0x00\n      dup1\n      revert\n        /* \"Source_Code/Variables_Functions.sol\":238:297  function iAmPublic() public{... */\n    tag_3:\n      tag_6\n      tag_7\n      jump\t// in\n    tag_6:\n      stop\n        /* \"Source_Code/Variables_Functions.sol\":439:497  function random() external{... */\n    tag_4:\n      tag_8\n      tag_9\n      jump\t// in\n    tag_8:\n      stop\n        /* \"Source_Code/Variables_Functions.sol\":176:197  uint public myvar = 0 */\n    tag_5:\n      tag_10\n      tag_11\n      jump\t// in\n    tag_10:\n      mload(0x40)\n      tag_12\n      swap2\n      swap1\n      tag_13\n      jump\t// in\n    tag_12:\n      mload(0x40)\n      dup1\n      swap2\n      sub\n      swap1\n      return\n        /* \"Source_Code/Variables_Functions.sol\":238:297  function iAmPublic() public{... */\n    tag_7:\n      jump\t// out\n        /* \"Source_Code/Variables_Functions.sol\":439:497  function random() external{... */\n    tag_9:\n      jump\t// out\n        /* \"Source_Code/Variables_Functions.sol\":176:197  uint public myvar = 0 */\n    tag_11:\n      sload(0x02)\n      dup2\n      jump\t// out\n        /* \"#utility.yul\":7:84   */\n    tag_16:\n        /* \"#utility.yul\":44:51   */\n      0x00\n        /* \"#utility.yul\":73:78   */\n      dup2\n        /* \"#utility.yul\":62:78   */\n      swap1\n      pop\n        /* \"#utility.yul\":7:84   */\n      swap2\n      swap1\n      pop\n      jump\t// out\n        /* \"#utility.yul\":90:208   */\n    tag_17:\n        /* \"#utility.yul\":177:201   */\n      tag_21\n        /* \"#utility.yul\":195:200   */\n      dup2\n        /* \"#utility.yul\":177:201   */\n      tag_16\n      jump\t// in\n    tag_21:\n        /* \"#utility.yul\":172:175   */\n      dup3\n        /* \"#utility.yul\":165:202   */\n      mstore\n        /* \"#utility.yul\":90:208   */\n      pop\n      pop\n      jump\t// out\n        /* \"#utility.yul\":214:436   */\n    tag_13:\n        /* \"#utility.yul\":307:311   */\n      0x00\n        /* \"#utility.yul\":345:347   */\n      0x20\n        /* \"#utility.yul\":334:343   */\n      dup3\n        /* \"#utility.yul\":330:348   */\n      add\n        /* \"#utility.yul\":322:348   */\n      swap1\n      pop\n        /* \"#utility.yul\":358:429   */\n      tag_23\n        /* \"#utility.yul\":426:427   */\n      0x00\n        /* \"#utility.yul\":415:424   */\n      dup4\n        /* \"#utility.yul\":411:428   */\n      add\n        /* \"#utility.yul\":402:408   */\n      dup5\n        /* \"#utility.yul\":358:429   */\n      tag_17\n      jump\t// in\n    tag_23:\n        /* \"#utility.yul\":214:436   */\n      swap3\n      swap2\n      pop\n      pop\n      jump\t// out\n\n    auxdata: 0xa2646970667358221220f0becbbbaa15d9477624327592ba93481fd9936c064f9139b8794a83094e711b64736f6c634300081a0033\n}\n",
				"bytecode": {
					"linkReferences": {},
					"object": "60806040525f80555f6001555f6002553480156019575f80fd5b5060d5806100265f395ff3fe6080604052348015600e575f80fd5b5060043610603a575f3560e01c806303c45fef14603e5780635ec01e4d146046578063c358838e14604e575b5f80fd5b60446068565b005b604c606a565b005b6054606c565b604051605f91906088565b60405180910390f35b565b565b60025481565b5f819050919050565b6082816072565b82525050565b5f60208201905060995f830184607b565b9291505056fea2646970667358221220f0becbbbaa15d9477624327592ba93481fd9936c064f9139b8794a83094e711b64736f6c634300081a0033",
					"opcodes": "PUSH1 0x80 PUSH1 0x40 MSTORE PUSH0 DUP1 SSTORE PUSH0 PUSH1 0x1 SSTORE PUSH0 PUSH1 0x2 SSTORE CALLVALUE DUP1 ISZERO PUSH1 0x19 JUMPI PUSH0 DUP1 REVERT JUMPDEST POP PUSH1 0xD5 DUP1 PUSH2 0x26 PUSH0 CODECOPY PUSH0 RETURN INVALID PUSH1 0x80 PUSH1 0x40 MSTORE CALLVALUE DUP1 ISZERO PUSH1 0xE JUMPI PUSH0 DUP1 REVERT JUMPDEST POP PUSH1 0x4 CALLDATASIZE LT PUSH1 0x3A JUMPI PUSH0 CALLDATALOAD PUSH1 0xE0 SHR DUP1 PUSH4 0x3C45FEF EQ PUSH1 0x3E JUMPI DUP1 PUSH4 0x5EC01E4D EQ PUSH1 0x46 JUMPI DUP1 PUSH4 0xC358838E EQ PUSH1 0x4E JUMPI JUMPDEST PUSH0 DUP1 REVERT JUMPDEST PUSH1 0x44 PUSH1 0x68 JUMP JUMPDEST STOP JUMPDEST PUSH1 0x4C PUSH1 0x6A JUMP JUMPDEST STOP JUMPDEST PUSH1 0x54 PUSH1 0x6C JUMP JUMPDEST PUSH1 0x40 MLOAD PUSH1 0x5F SWAP2 SWAP1 PUSH1 0x88 JUMP JUMPDEST PUSH1 0x40 MLOAD DUP1 SWAP2 SUB SWAP1 RETURN JUMPDEST JUMP JUMPDEST JUMP JUMPDEST PUSH1 0x2 SLOAD DUP2 JUMP JUMPDEST PUSH0 DUP2 SWAP1 POP SWAP2 SWAP1 POP JUMP JUMPDEST PUSH1 0x82 DUP2 PUSH1 0x72 JUMP JUMPDEST DUP3 MSTORE POP POP JUMP JUMPDEST PUSH0 PUSH1 0x20 DUP3 ADD SWAP1 POP PUSH1 0x99 PUSH0 DUP4 ADD DUP5 PUSH1 0x7B JUMP JUMPDEST SWAP3 SWAP2 POP POP JUMP INVALID LOG2 PUSH5 0x6970667358 0x22 SLT KECCAK256 CREATE 0xBE 0xCB 0xBB 0xAA ISZERO 0xD9 SELFBALANCE PUSH23 0x24327592BA93481FD9936C064F9139B8794A83094E711B PUSH5 0x736F6C6343 STOP ADDMOD BYTE STOP CALLER "
				},
				"gasEstimates": {
					"creation": {
						"codeDepositCost": "42600",
						"executionCost": "15106",
						"totalCost": "57706"
					},
					"external": {
						"iAmPublic()": "121",
						"myvar()": "2447",
						"random()": "143"
					},
					"internal": {
						"its_Private()": "infinite",
						"mine()": "infinite"
					}
				},
				"methodIdentifiers": {
					"iAmPublic()": "03c45fef",
					"myvar()": "c358838e",
					"random()": "5ec01e4d"
				}
			},
			"storageLayout": {
				"storage": [
					{
						"astId": 4,
						"contract": "Source_Code/Variables_Functions.sol:mychain",
						"label": "coins",
						"offset": 0,
						"slot": "0",
						"type": "t_int256"
					},
					{
						"astId": 7,
						"contract": "Source_Code/Variables_Functions.sol:mychain",
						"label": "iamvar",
						"offset": 0,
						"slot": "1",
						"type": "t_uint256"
					},
					{
						"astId": 10,
						"contract": "Source_Code/Variables_Functions.sol:mychain",
						"label": "myvar",
						"offset": 0,
						"slot": "2",
						"type": "t_uint256"
					}
				],
				"types": {
					"t_int256": {
						"encoding": "inplace",
						"label": "int256",
						"numberOfBytes": "32"
					},
					"t_uint256": {
						"encoding": "inplace",
						"label": "uint256",
						"numberOfBytes": "32"
					}
				}
			},
			"userdoc": {
				"kind": "user",
				"methods": {},
				"version": 1
			}
		}
	}
}