{
	"Source_Code/Events.sol": {
		"prachain": {
			"abi": [
				{
					"anonymous": false,
					"inputs": [
						{
							"indexed": false,
							"internalType": "string",
							"name": "name",
							"type": "string"
						},
						{
							"indexed": false,
							"internalType": "uint256",
							"name": "rollNumber",
							"type": "uint256"
						},
						{
							"indexed": false,
							"internalType": "uint256",
							"name": "contactNumber",
							"type": "uint256"
						},
						{
							"indexed": false,
							"internalType": "string",
							"name": "emailId",
							"type": "string"
						}
					],
					"name": "studentAdded",
					"type": "event"
				},
				{
					"inputs": [
						{
							"internalType": "string",
							"name": "_name",
							"type": "string"
						},
						{
							"internalType": "string",
							"name": "_emailId",
							"type": "string"
						},
						{
							"internalType": "uint256",
							"name": "_contactNumber",
							"type": "uint256"
						}
					],
					"name": "addStudent",
					"outputs": [],
					"stateMutability": "nonpayable",
					"type": "function"
				},
				{
					"inputs": [
						{
							"internalType": "uint256",
							"name": "",
							"type": "uint256"
						}
					],
					"name": "studentDatabase",
					"outputs": [
						{
							"internalType": "string",
							"name": "name",
							"type": "string"
						},
						{
							"internalType": "string",
							"name": "emailId",
							"type": "string"
						},
						{
							"internalType": "uint256",
							"name": "contactNumber",
							"type": "uint256"
						},
						{
							"internalType": "uint256",
							"name": "rollNumber",
							"type": "uint256"
						},
						{
							"internalType": "uint256",
							"name": "timestamp",
							"type": "uint256"
						}
					],
					"stateMutability": "view",
					"type": "function"
				}
			],
			"devdoc": {
				"kind": "dev",
				"methods": {},
				"version": 1
			},
			"evm": {
				"assembly": "    /* \"Source_Code/Events.sol\":60:1012  contract prachain {... */\n  mstore(0x40, 0x80)\n    /* \"Source_Code/Events.sol\":253:254  1 */\n  0x01\n    /* \"Source_Code/Events.sol\":232:254  uint256 rollNumber = 1 */\n  0x00\n  sstore\n    /* \"Source_Code/Events.sol\":60:1012  contract prachain {... */\n  callvalue\n  dup1\n  iszero\n  tag_1\n  jumpi\n  0x00\n  dup1\n  revert\ntag_1:\n  pop\n  dataSize(sub_0)\n  dup1\n  dataOffset(sub_0)\n  0x00\n  codecopy\n  0x00\n  return\nstop\n\nsub_0: assembly {\n        /* \"Source_Code/Events.sol\":60:1012  contract prachain {... */\n      mstore(0x40, 0x80)\n      callvalue\n      dup1\n      iszero\n      tag_1\n      jumpi\n      0x00\n      dup1\n      revert\n    tag_1:\n      pop\n      jumpi(tag_2, lt(calldatasize, 0x04))\n      shr(0xe0, calldataload(0x00))\n      dup1\n      0x9cc8f139\n      eq\n      tag_3\n      jumpi\n      dup1\n      0xb588d722\n      eq\n      tag_4\n      jumpi\n    tag_2:\n      0x00\n      dup1\n      revert\n        /* \"Source_Code/Events.sol\":463:1009  function addStudent (... */\n    tag_3:\n      tag_5\n      0x04\n      dup1\n      calldatasize\n      sub\n      dup2\n      add\n      swap1\n      tag_6\n      swap2\n      swap1\n      tag_7\n      jump\t// in\n    tag_6:\n      tag_8\n      jump\t// in\n    tag_5:\n      stop\n        /* \"Source_Code/Events.sol\":261:311  mapping(uint256 => student) public studentDatabase */\n    tag_4:\n      tag_9\n      0x04\n      dup1\n      calldatasize\n      sub\n      dup2\n      add\n      swap1\n      tag_10\n      swap2\n      swap1\n      tag_11\n      jump\t// in\n    tag_10:\n      tag_12\n      jump\t// in\n    tag_9:\n      mload(0x40)\n      tag_13\n      swap6\n      swap5\n      swap4\n      swap3\n      swap2\n      swap1\n      tag_14\n      jump\t// in\n    tag_13:\n      mload(0x40)\n      dup1\n      swap2\n      sub\n      swap1\n      return\n        /* \"Source_Code/Events.sol\":463:1009  function addStudent (... */\n    tag_8:\n        /* \"Source_Code/Events.sol\":640:645  _name */\n      dup3\n        /* \"Source_Code/Events.sol\":605:620  studentDatabase */\n      0x01\n        /* \"Source_Code/Events.sol\":605:632  studentDatabase[rollNumber] */\n      0x00\n        /* \"Source_Code/Events.sol\":621:631  rollNumber */\n      dup1\n      sload\n        /* \"Source_Code/Events.sol\":605:632  studentDatabase[rollNumber] */\n      dup2\n      mstore\n      0x20\n      add\n      swap1\n      dup2\n      mstore\n      0x20\n      add\n      0x00\n      keccak256\n        /* \"Source_Code/Events.sol\":605:637  studentDatabase[rollNumber].name */\n      0x00\n      add\n        /* \"Source_Code/Events.sol\":605:645  studentDatabase[rollNumber].name = _name */\n      swap1\n      dup2\n      tag_16\n      swap2\n      swap1\n      tag_17\n      jump\t// in\n    tag_16:\n      pop\n        /* \"Source_Code/Events.sol\":695:703  _emailId */\n      dup2\n        /* \"Source_Code/Events.sol\":657:672  studentDatabase */\n      0x01\n        /* \"Source_Code/Events.sol\":657:684  studentDatabase[rollNumber] */\n      0x00\n        /* \"Source_Code/Events.sol\":673:683  rollNumber */\n      dup1\n      sload\n        /* \"Source_Code/Events.sol\":657:684  studentDatabase[rollNumber] */\n      dup2\n      mstore\n      0x20\n      add\n      swap1\n      dup2\n      mstore\n      0x20\n      add\n      0x00\n      keccak256\n        /* \"Source_Code/Events.sol\":657:692  studentDatabase[rollNumber].emailId */\n      0x01\n      add\n        /* \"Source_Code/Events.sol\":657:703  studentDatabase[rollNumber].emailId = _emailId */\n      swap1\n      dup2\n      tag_18\n      swap2\n      swap1\n      tag_17\n      jump\t// in\n    tag_18:\n      pop\n        /* \"Source_Code/Events.sol\":759:773  _contactNumber */\n      dup1\n        /* \"Source_Code/Events.sol\":715:730  studentDatabase */\n      0x01\n        /* \"Source_Code/Events.sol\":715:742  studentDatabase[rollNumber] */\n      0x00\n        /* \"Source_Code/Events.sol\":731:741  rollNumber */\n      dup1\n      sload\n        /* \"Source_Code/Events.sol\":715:742  studentDatabase[rollNumber] */\n      dup2\n      mstore\n      0x20\n      add\n      swap1\n      dup2\n      mstore\n      0x20\n      add\n      0x00\n      keccak256\n        /* \"Source_Code/Events.sol\":715:756  studentDatabase[rollNumber].contactNumber */\n      0x02\n      add\n        /* \"Source_Code/Events.sol\":715:773  studentDatabase[rollNumber].contactNumber = _contactNumber */\n      dup2\n      swap1\n      sstore\n      pop\n        /* \"Source_Code/Events.sol\":826:836  rollNumber */\n      sload(0x00)\n        /* \"Source_Code/Events.sol\":785:800  studentDatabase */\n      0x01\n        /* \"Source_Code/Events.sol\":785:812  studentDatabase[rollNumber] */\n      0x00\n        /* \"Source_Code/Events.sol\":801:811  rollNumber */\n      dup1\n      sload\n        /* \"Source_Code/Events.sol\":785:812  studentDatabase[rollNumber] */\n      dup2\n      mstore\n      0x20\n      add\n      swap1\n      dup2\n      mstore\n      0x20\n      add\n      0x00\n      keccak256\n        /* \"Source_Code/Events.sol\":785:823  studentDatabase[rollNumber].rollNumber */\n      0x03\n      add\n        /* \"Source_Code/Events.sol\":785:836  studentDatabase[rollNumber].rollNumber = rollNumber */\n      dup2\n      swap1\n      sstore\n      pop\n        /* \"Source_Code/Events.sol\":888:903  block.timestamp */\n      timestamp\n        /* \"Source_Code/Events.sol\":848:863  studentDatabase */\n      0x01\n        /* \"Source_Code/Events.sol\":848:875  studentDatabase[rollNumber] */\n      0x00\n        /* \"Source_Code/Events.sol\":864:874  rollNumber */\n      dup1\n      sload\n        /* \"Source_Code/Events.sol\":848:875  studentDatabase[rollNumber] */\n      dup2\n      mstore\n      0x20\n      add\n      swap1\n      dup2\n      mstore\n      0x20\n      add\n      0x00\n      keccak256\n        /* \"Source_Code/Events.sol\":848:885  studentDatabase[rollNumber].timestamp */\n      0x04\n      add\n        /* \"Source_Code/Events.sol\":848:903  studentDatabase[rollNumber].timestamp = block.timestamp */\n      dup2\n      swap1\n      sstore\n      pop\n        /* \"Source_Code/Events.sol\":920:975  studentAdded( _name,rollNumber,_contactNumber,_emailId) */\n      0x04b62f20d83748e85c3d6f6c305abb1272efb098c6fdcb7ca4cfe594a0885145\n        /* \"Source_Code/Events.sol\":934:939  _name */\n      dup4\n        /* \"Source_Code/Events.sol\":940:950  rollNumber */\n      sload(0x00)\n        /* \"Source_Code/Events.sol\":951:965  _contactNumber */\n      dup4\n        /* \"Source_Code/Events.sol\":966:974  _emailId */\n      dup6\n        /* \"Source_Code/Events.sol\":920:975  studentAdded( _name,rollNumber,_contactNumber,_emailId) */\n      mload(0x40)\n      tag_19\n      swap5\n      swap4\n      swap3\n      swap2\n      swap1\n      tag_20\n      jump\t// in\n    tag_19:\n      mload(0x40)\n      dup1\n      swap2\n      sub\n      swap1\n      log1\n        /* \"Source_Code/Events.sol\":998:999  1 */\n      0x01\n        /* \"Source_Code/Events.sol\":986:996  rollNumber */\n      0x00\n      dup1\n        /* \"Source_Code/Events.sol\":986:999  rollNumber+=1 */\n      dup3\n      dup3\n      sload\n      tag_21\n      swap2\n      swap1\n      tag_22\n      jump\t// in\n    tag_21:\n      swap3\n      pop\n      pop\n      dup2\n      swap1\n      sstore\n      pop\n        /* \"Source_Code/Events.sol\":463:1009  function addStudent (... */\n      pop\n      pop\n      pop\n      jump\t// out\n        /* \"Source_Code/Events.sol\":261:311  mapping(uint256 => student) public studentDatabase */\n    tag_12:\n      mstore(0x20, 0x01)\n      dup1\n      0x00\n      mstore\n      keccak256(0x00, 0x40)\n      0x00\n      swap2\n      pop\n      swap1\n      pop\n      dup1\n      0x00\n      add\n      dup1\n      sload\n      tag_23\n      swap1\n      tag_24\n      jump\t// in\n    tag_23:\n      dup1\n      0x1f\n      add\n      0x20\n      dup1\n      swap2\n      div\n      mul\n      0x20\n      add\n      mload(0x40)\n      swap1\n      dup2\n      add\n      0x40\n      mstore\n      dup1\n      swap3\n      swap2\n      swap1\n      dup2\n      dup2\n      mstore\n      0x20\n      add\n      dup3\n      dup1\n      sload\n      tag_25\n      swap1\n      tag_24\n      jump\t// in\n    tag_25:\n      dup1\n      iszero\n      tag_26\n      jumpi\n      dup1\n      0x1f\n      lt\n      tag_27\n      jumpi\n      0x0100\n      dup1\n      dup4\n      sload\n      div\n      mul\n      dup4\n      mstore\n      swap2\n      0x20\n      add\n      swap2\n      jump(tag_26)\n    tag_27:\n      dup3\n      add\n      swap2\n      swap1\n      0x00\n      mstore\n      keccak256(0x00, 0x20)\n      swap1\n    tag_28:\n      dup2\n      sload\n      dup2\n      mstore\n      swap1\n      0x01\n      add\n      swap1\n      0x20\n      add\n      dup1\n      dup4\n      gt\n      tag_28\n      jumpi\n      dup3\n      swap1\n      sub\n      0x1f\n      and\n      dup3\n      add\n      swap2\n    tag_26:\n      pop\n      pop\n      pop\n      pop\n      pop\n      swap1\n      dup1\n      0x01\n      add\n      dup1\n      sload\n      tag_29\n      swap1\n      tag_24\n      jump\t// in\n    tag_29:\n      dup1\n      0x1f\n      add\n      0x20\n      dup1\n      swap2\n      div\n      mul\n      0x20\n      add\n      mload(0x40)\n      swap1\n      dup2\n      add\n      0x40\n      mstore\n      dup1\n      swap3\n      swap2\n      swap1\n      dup2\n      dup2\n      mstore\n      0x20\n      add\n      dup3\n      dup1\n      sload\n      tag_30\n      swap1\n      tag_24\n      jump\t// in\n    tag_30:\n      dup1\n      iszero\n      tag_31\n      jumpi\n      dup1\n      0x1f\n      lt\n      tag_32\n      jumpi\n      0x0100\n      dup1\n      dup4\n      sload\n      div\n      mul\n      dup4\n      mstore\n      swap2\n      0x20\n      add\n      swap2\n      jump(tag_31)\n    tag_32:\n      dup3\n      add\n      swap2\n      swap1\n      0x00\n      mstore\n      keccak256(0x00, 0x20)\n      swap1\n    tag_33:\n      dup2\n      sload\n      dup2\n      mstore\n      swap1\n      0x01\n      add\n      swap1\n      0x20\n      add\n      dup1\n      dup4\n      gt\n      tag_33\n      jumpi\n      dup3\n      swap1\n      sub\n      0x1f\n      and\n      dup3\n      add\n      swap2\n    tag_31:\n      pop\n      pop\n      pop\n      pop\n      pop\n      swap1\n      dup1\n      0x02\n      add\n      sload\n      swap1\n      dup1\n      0x03\n      add\n      sload\n      swap1\n      dup1\n      0x04\n      add\n      sload\n      swap1\n      pop\n      dup6\n      jump\t// out\n        /* \"#utility.yul\":7:82   */\n    tag_34:\n        /* \"#utility.yul\":40:46   */\n      0x00\n        /* \"#utility.yul\":73:75   */\n      0x40\n        /* \"#utility.yul\":67:76   */\n      mload\n        /* \"#utility.yul\":57:76   */\n      swap1\n      pop\n        /* \"#utility.yul\":7:82   */\n      swap1\n      jump\t// out\n        /* \"#utility.yul\":88:205   */\n    tag_35:\n        /* \"#utility.yul\":197:198   */\n      0x00\n        /* \"#utility.yul\":194:195   */\n      dup1\n        /* \"#utility.yul\":187:199   */\n      revert\n        /* \"#utility.yul\":211:328   */\n    tag_36:\n        /* \"#utility.yul\":320:321   */\n      0x00\n        /* \"#utility.yul\":317:318   */\n      dup1\n        /* \"#utility.yul\":310:322   */\n      revert\n        /* \"#utility.yul\":334:451   */\n    tag_37:\n        /* \"#utility.yul\":443:444   */\n      0x00\n        /* \"#utility.yul\":440:441   */\n      dup1\n        /* \"#utility.yul\":433:445   */\n      revert\n        /* \"#utility.yul\":457:574   */\n    tag_38:\n        /* \"#utility.yul\":566:567   */\n      0x00\n        /* \"#utility.yul\":563:564   */\n      dup1\n        /* \"#utility.yul\":556:568   */\n      revert\n        /* \"#utility.yul\":580:682   */\n    tag_39:\n        /* \"#utility.yul\":621:627   */\n      0x00\n        /* \"#utility.yul\":672:674   */\n      0x1f\n        /* \"#utility.yul\":668:675   */\n      not\n        /* \"#utility.yul\":663:665   */\n      0x1f\n        /* \"#utility.yul\":656:661   */\n      dup4\n        /* \"#utility.yul\":652:666   */\n      add\n        /* \"#utility.yul\":648:676   */\n      and\n        /* \"#utility.yul\":638:676   */\n      swap1\n      pop\n        /* \"#utility.yul\":580:682   */\n      swap2\n      swap1\n      pop\n      jump\t// out\n        /* \"#utility.yul\":688:868   */\n    tag_40:\n        /* \"#utility.yul\":736:813   */\n      0x4e487b7100000000000000000000000000000000000000000000000000000000\n        /* \"#utility.yul\":733:734   */\n      0x00\n        /* \"#utility.yul\":726:814   */\n      mstore\n        /* \"#utility.yul\":833:837   */\n      0x41\n        /* \"#utility.yul\":830:831   */\n      0x04\n        /* \"#utility.yul\":823:838   */\n      mstore\n        /* \"#utility.yul\":857:861   */\n      0x24\n        /* \"#utility.yul\":854:855   */\n      0x00\n        /* \"#utility.yul\":847:862   */\n      revert\n        /* \"#utility.yul\":874:1155   */\n    tag_41:\n        /* \"#utility.yul\":957:984   */\n      tag_81\n        /* \"#utility.yul\":979:983   */\n      dup3\n        /* \"#utility.yul\":957:984   */\n      tag_39\n      jump\t// in\n    tag_81:\n        /* \"#utility.yul\":949:955   */\n      dup2\n        /* \"#utility.yul\":945:985   */\n      add\n        /* \"#utility.yul\":1087:1093   */\n      dup2\n        /* \"#utility.yul\":1075:1085   */\n      dup2\n        /* \"#utility.yul\":1072:1094   */\n      lt\n        /* \"#utility.yul\":1051:1069   */\n      0xffffffffffffffff\n        /* \"#utility.yul\":1039:1049   */\n      dup3\n        /* \"#utility.yul\":1036:1070   */\n      gt\n        /* \"#utility.yul\":1033:1095   */\n      or\n        /* \"#utility.yul\":1030:1118   */\n      iszero\n      tag_82\n      jumpi\n        /* \"#utility.yul\":1098:1116   */\n      tag_83\n      tag_40\n      jump\t// in\n    tag_83:\n        /* \"#utility.yul\":1030:1118   */\n    tag_82:\n        /* \"#utility.yul\":1138:1148   */\n      dup1\n        /* \"#utility.yul\":1134:1136   */\n      0x40\n        /* \"#utility.yul\":1127:1149   */\n      mstore\n        /* \"#utility.yul\":917:1155   */\n      pop\n        /* \"#utility.yul\":874:1155   */\n      pop\n      pop\n      jump\t// out\n        /* \"#utility.yul\":1161:1290   */\n    tag_42:\n        /* \"#utility.yul\":1195:1201   */\n      0x00\n        /* \"#utility.yul\":1222:1242   */\n      tag_85\n      tag_34\n      jump\t// in\n    tag_85:\n        /* \"#utility.yul\":1212:1242   */\n      swap1\n      pop\n        /* \"#utility.yul\":1251:1284   */\n      tag_86\n        /* \"#utility.yul\":1279:1283   */\n      dup3\n        /* \"#utility.yul\":1271:1277   */\n      dup3\n        /* \"#utility.yul\":1251:1284   */\n      tag_41\n      jump\t// in\n    tag_86:\n        /* \"#utility.yul\":1161:1290   */\n      swap2\n      swap1\n      pop\n      jump\t// out\n        /* \"#utility.yul\":1296:1604   */\n    tag_43:\n        /* \"#utility.yul\":1358:1362   */\n      0x00\n        /* \"#utility.yul\":1448:1466   */\n      0xffffffffffffffff\n        /* \"#utility.yul\":1440:1446   */\n      dup3\n        /* \"#utility.yul\":1437:1467   */\n      gt\n        /* \"#utility.yul\":1434:1490   */\n      iszero\n      tag_88\n      jumpi\n        /* \"#utility.yul\":1470:1488   */\n      tag_89\n      tag_40\n      jump\t// in\n    tag_89:\n        /* \"#utility.yul\":1434:1490   */\n    tag_88:\n        /* \"#utility.yul\":1508:1537   */\n      tag_90\n        /* \"#utility.yul\":1530:1536   */\n      dup3\n        /* \"#utility.yul\":1508:1537   */\n      tag_39\n      jump\t// in\n    tag_90:\n        /* \"#utility.yul\":1500:1537   */\n      swap1\n      pop\n        /* \"#utility.yul\":1592:1596   */\n      0x20\n        /* \"#utility.yul\":1586:1590   */\n      dup2\n        /* \"#utility.yul\":1582:1597   */\n      add\n        /* \"#utility.yul\":1574:1597   */\n      swap1\n      pop\n        /* \"#utility.yul\":1296:1604   */\n      swap2\n      swap1\n      pop\n      jump\t// out\n        /* \"#utility.yul\":1610:1758   */\n    tag_44:\n        /* \"#utility.yul\":1708:1714   */\n      dup3\n        /* \"#utility.yul\":1703:1706   */\n      dup2\n        /* \"#utility.yul\":1698:1701   */\n      dup4\n        /* \"#utility.yul\":1685:1715   */\n      calldatacopy\n        /* \"#utility.yul\":1749:1750   */\n      0x00\n        /* \"#utility.yul\":1740:1746   */\n      dup4\n        /* \"#utility.yul\":1735:1738   */\n      dup4\n        /* \"#utility.yul\":1731:1747   */\n      add\n        /* \"#utility.yul\":1724:1751   */\n      mstore\n        /* \"#utility.yul\":1610:1758   */\n      pop\n      pop\n      pop\n      jump\t// out\n        /* \"#utility.yul\":1764:2189   */\n    tag_45:\n        /* \"#utility.yul\":1842:1847   */\n      0x00\n        /* \"#utility.yul\":1867:1933   */\n      tag_93\n        /* \"#utility.yul\":1883:1932   */\n      tag_94\n        /* \"#utility.yul\":1925:1931   */\n      dup5\n        /* \"#utility.yul\":1883:1932   */\n      tag_43\n      jump\t// in\n    tag_94:\n        /* \"#utility.yul\":1867:1933   */\n      tag_42\n      jump\t// in\n    tag_93:\n        /* \"#utility.yul\":1858:1933   */\n      swap1\n      pop\n        /* \"#utility.yul\":1956:1962   */\n      dup3\n        /* \"#utility.yul\":1949:1954   */\n      dup2\n        /* \"#utility.yul\":1942:1963   */\n      mstore\n        /* \"#utility.yul\":1994:1998   */\n      0x20\n        /* \"#utility.yul\":1987:1992   */\n      dup2\n        /* \"#utility.yul\":1983:1999   */\n      add\n        /* \"#utility.yul\":2032:2035   */\n      dup5\n        /* \"#utility.yul\":2023:2029   */\n      dup5\n        /* \"#utility.yul\":2018:2021   */\n      dup5\n        /* \"#utility.yul\":2014:2030   */\n      add\n        /* \"#utility.yul\":2011:2036   */\n      gt\n        /* \"#utility.yul\":2008:2120   */\n      iszero\n      tag_95\n      jumpi\n        /* \"#utility.yul\":2039:2118   */\n      tag_96\n      tag_38\n      jump\t// in\n    tag_96:\n        /* \"#utility.yul\":2008:2120   */\n    tag_95:\n        /* \"#utility.yul\":2129:2183   */\n      tag_97\n        /* \"#utility.yul\":2176:2182   */\n      dup5\n        /* \"#utility.yul\":2171:2174   */\n      dup3\n        /* \"#utility.yul\":2166:2169   */\n      dup6\n        /* \"#utility.yul\":2129:2183   */\n      tag_44\n      jump\t// in\n    tag_97:\n        /* \"#utility.yul\":1848:2189   */\n      pop\n        /* \"#utility.yul\":1764:2189   */\n      swap4\n      swap3\n      pop\n      pop\n      pop\n      jump\t// out\n        /* \"#utility.yul\":2209:2549   */\n    tag_46:\n        /* \"#utility.yul\":2265:2270   */\n      0x00\n        /* \"#utility.yul\":2314:2317   */\n      dup3\n        /* \"#utility.yul\":2307:2311   */\n      0x1f\n        /* \"#utility.yul\":2299:2305   */\n      dup4\n        /* \"#utility.yul\":2295:2312   */\n      add\n        /* \"#utility.yul\":2291:2318   */\n      slt\n        /* \"#utility.yul\":2281:2403   */\n      tag_99\n      jumpi\n        /* \"#utility.yul\":2322:2401   */\n      tag_100\n      tag_37\n      jump\t// in\n    tag_100:\n        /* \"#utility.yul\":2281:2403   */\n    tag_99:\n        /* \"#utility.yul\":2439:2445   */\n      dup2\n        /* \"#utility.yul\":2426:2446   */\n      calldataload\n        /* \"#utility.yul\":2464:2543   */\n      tag_101\n        /* \"#utility.yul\":2539:2542   */\n      dup5\n        /* \"#utility.yul\":2531:2537   */\n      dup3\n        /* \"#utility.yul\":2524:2528   */\n      0x20\n        /* \"#utility.yul\":2516:2522   */\n      dup7\n        /* \"#utility.yul\":2512:2529   */\n      add\n        /* \"#utility.yul\":2464:2543   */\n      tag_45\n      jump\t// in\n    tag_101:\n        /* \"#utility.yul\":2455:2543   */\n      swap2\n      pop\n        /* \"#utility.yul\":2271:2549   */\n      pop\n        /* \"#utility.yul\":2209:2549   */\n      swap3\n      swap2\n      pop\n      pop\n      jump\t// out\n        /* \"#utility.yul\":2555:2632   */\n    tag_47:\n        /* \"#utility.yul\":2592:2599   */\n      0x00\n        /* \"#utility.yul\":2621:2626   */\n      dup2\n        /* \"#utility.yul\":2610:2626   */\n      swap1\n      pop\n        /* \"#utility.yul\":2555:2632   */\n      swap2\n      swap1\n      pop\n      jump\t// out\n        /* \"#utility.yul\":2638:2760   */\n    tag_48:\n        /* \"#utility.yul\":2711:2735   */\n      tag_104\n        /* \"#utility.yul\":2729:2734   */\n      dup2\n        /* \"#utility.yul\":2711:2735   */\n      tag_47\n      jump\t// in\n    tag_104:\n        /* \"#utility.yul\":2704:2709   */\n      dup2\n        /* \"#utility.yul\":2701:2736   */\n      eq\n        /* \"#utility.yul\":2691:2754   */\n      tag_105\n      jumpi\n        /* \"#utility.yul\":2750:2751   */\n      0x00\n        /* \"#utility.yul\":2747:2748   */\n      dup1\n        /* \"#utility.yul\":2740:2752   */\n      revert\n        /* \"#utility.yul\":2691:2754   */\n    tag_105:\n        /* \"#utility.yul\":2638:2760   */\n      pop\n      jump\t// out\n        /* \"#utility.yul\":2766:2905   */\n    tag_49:\n        /* \"#utility.yul\":2812:2817   */\n      0x00\n        /* \"#utility.yul\":2850:2856   */\n      dup2\n        /* \"#utility.yul\":2837:2857   */\n      calldataload\n        /* \"#utility.yul\":2828:2857   */\n      swap1\n      pop\n        /* \"#utility.yul\":2866:2899   */\n      tag_107\n        /* \"#utility.yul\":2893:2898   */\n      dup2\n        /* \"#utility.yul\":2866:2899   */\n      tag_48\n      jump\t// in\n    tag_107:\n        /* \"#utility.yul\":2766:2905   */\n      swap3\n      swap2\n      pop\n      pop\n      jump\t// out\n        /* \"#utility.yul\":2911:3890   */\n    tag_7:\n        /* \"#utility.yul\":3008:3014   */\n      0x00\n        /* \"#utility.yul\":3016:3022   */\n      dup1\n        /* \"#utility.yul\":3024:3030   */\n      0x00\n        /* \"#utility.yul\":3073:3075   */\n      0x60\n        /* \"#utility.yul\":3061:3070   */\n      dup5\n        /* \"#utility.yul\":3052:3059   */\n      dup7\n        /* \"#utility.yul\":3048:3071   */\n      sub\n        /* \"#utility.yul\":3044:3076   */\n      slt\n        /* \"#utility.yul\":3041:3160   */\n      iszero\n      tag_109\n      jumpi\n        /* \"#utility.yul\":3079:3158   */\n      tag_110\n      tag_35\n      jump\t// in\n    tag_110:\n        /* \"#utility.yul\":3041:3160   */\n    tag_109:\n        /* \"#utility.yul\":3227:3228   */\n      0x00\n        /* \"#utility.yul\":3216:3225   */\n      dup5\n        /* \"#utility.yul\":3212:3229   */\n      add\n        /* \"#utility.yul\":3199:3230   */\n      calldataload\n        /* \"#utility.yul\":3257:3275   */\n      0xffffffffffffffff\n        /* \"#utility.yul\":3249:3255   */\n      dup2\n        /* \"#utility.yul\":3246:3276   */\n      gt\n        /* \"#utility.yul\":3243:3360   */\n      iszero\n      tag_111\n      jumpi\n        /* \"#utility.yul\":3279:3358   */\n      tag_112\n      tag_36\n      jump\t// in\n    tag_112:\n        /* \"#utility.yul\":3243:3360   */\n    tag_111:\n        /* \"#utility.yul\":3384:3447   */\n      tag_113\n        /* \"#utility.yul\":3439:3446   */\n      dup7\n        /* \"#utility.yul\":3430:3436   */\n      dup3\n        /* \"#utility.yul\":3419:3428   */\n      dup8\n        /* \"#utility.yul\":3415:3437   */\n      add\n        /* \"#utility.yul\":3384:3447   */\n      tag_46\n      jump\t// in\n    tag_113:\n        /* \"#utility.yul\":3374:3447   */\n      swap4\n      pop\n        /* \"#utility.yul\":3170:3457   */\n      pop\n        /* \"#utility.yul\":3524:3526   */\n      0x20\n        /* \"#utility.yul\":3513:3522   */\n      dup5\n        /* \"#utility.yul\":3509:3527   */\n      add\n        /* \"#utility.yul\":3496:3528   */\n      calldataload\n        /* \"#utility.yul\":3555:3573   */\n      0xffffffffffffffff\n        /* \"#utility.yul\":3547:3553   */\n      dup2\n        /* \"#utility.yul\":3544:3574   */\n      gt\n        /* \"#utility.yul\":3541:3658   */\n      iszero\n      tag_114\n      jumpi\n        /* \"#utility.yul\":3577:3656   */\n      tag_115\n      tag_36\n      jump\t// in\n    tag_115:\n        /* \"#utility.yul\":3541:3658   */\n    tag_114:\n        /* \"#utility.yul\":3682:3745   */\n      tag_116\n        /* \"#utility.yul\":3737:3744   */\n      dup7\n        /* \"#utility.yul\":3728:3734   */\n      dup3\n        /* \"#utility.yul\":3717:3726   */\n      dup8\n        /* \"#utility.yul\":3713:3735   */\n      add\n        /* \"#utility.yul\":3682:3745   */\n      tag_46\n      jump\t// in\n    tag_116:\n        /* \"#utility.yul\":3672:3745   */\n      swap3\n      pop\n        /* \"#utility.yul\":3467:3755   */\n      pop\n        /* \"#utility.yul\":3794:3796   */\n      0x40\n        /* \"#utility.yul\":3820:3873   */\n      tag_117\n        /* \"#utility.yul\":3865:3872   */\n      dup7\n        /* \"#utility.yul\":3856:3862   */\n      dup3\n        /* \"#utility.yul\":3845:3854   */\n      dup8\n        /* \"#utility.yul\":3841:3863   */\n      add\n        /* \"#utility.yul\":3820:3873   */\n      tag_49\n      jump\t// in\n    tag_117:\n        /* \"#utility.yul\":3810:3873   */\n      swap2\n      pop\n        /* \"#utility.yul\":3765:3883   */\n      pop\n        /* \"#utility.yul\":2911:3890   */\n      swap3\n      pop\n      swap3\n      pop\n      swap3\n      jump\t// out\n        /* \"#utility.yul\":3896:4225   */\n    tag_11:\n        /* \"#utility.yul\":3955:3961   */\n      0x00\n        /* \"#utility.yul\":4004:4006   */\n      0x20\n        /* \"#utility.yul\":3992:4001   */\n      dup3\n        /* \"#utility.yul\":3983:3990   */\n      dup5\n        /* \"#utility.yul\":3979:4002   */\n      sub\n        /* \"#utility.yul\":3975:4007   */\n      slt\n        /* \"#utility.yul\":3972:4091   */\n      iszero\n      tag_119\n      jumpi\n        /* \"#utility.yul\":4010:4089   */\n      tag_120\n      tag_35\n      jump\t// in\n    tag_120:\n        /* \"#utility.yul\":3972:4091   */\n    tag_119:\n        /* \"#utility.yul\":4130:4131   */\n      0x00\n        /* \"#utility.yul\":4155:4208   */\n      tag_121\n        /* \"#utility.yul\":4200:4207   */\n      dup5\n        /* \"#utility.yul\":4191:4197   */\n      dup3\n        /* \"#utility.yul\":4180:4189   */\n      dup6\n        /* \"#utility.yul\":4176:4198   */\n      add\n        /* \"#utility.yul\":4155:4208   */\n      tag_49\n      jump\t// in\n    tag_121:\n        /* \"#utility.yul\":4145:4208   */\n      swap2\n      pop\n        /* \"#utility.yul\":4101:4218   */\n      pop\n        /* \"#utility.yul\":3896:4225   */\n      swap3\n      swap2\n      pop\n      pop\n      jump\t// out\n        /* \"#utility.yul\":4231:4330   */\n    tag_50:\n        /* \"#utility.yul\":4283:4289   */\n      0x00\n        /* \"#utility.yul\":4317:4322   */\n      dup2\n        /* \"#utility.yul\":4311:4323   */\n      mload\n        /* \"#utility.yul\":4301:4323   */\n      swap1\n      pop\n        /* \"#utility.yul\":4231:4330   */\n      swap2\n      swap1\n      pop\n      jump\t// out\n        /* \"#utility.yul\":4336:4505   */\n    tag_51:\n        /* \"#utility.yul\":4420:4431   */\n      0x00\n        /* \"#utility.yul\":4454:4460   */\n      dup3\n        /* \"#utility.yul\":4449:4452   */\n      dup3\n        /* \"#utility.yul\":4442:4461   */\n      mstore\n        /* \"#utility.yul\":4494:4498   */\n      0x20\n        /* \"#utility.yul\":4489:4492   */\n      dup3\n        /* \"#utility.yul\":4485:4499   */\n      add\n        /* \"#utility.yul\":4470:4499   */\n      swap1\n      pop\n        /* \"#utility.yul\":4336:4505   */\n      swap3\n      swap2\n      pop\n      pop\n      jump\t// out\n        /* \"#utility.yul\":4511:4650   */\n    tag_52:\n        /* \"#utility.yul\":4600:4606   */\n      dup3\n        /* \"#utility.yul\":4595:4598   */\n      dup2\n        /* \"#utility.yul\":4590:4593   */\n      dup4\n        /* \"#utility.yul\":4584:4607   */\n      mcopy\n        /* \"#utility.yul\":4641:4642   */\n      0x00\n        /* \"#utility.yul\":4632:4638   */\n      dup4\n        /* \"#utility.yul\":4627:4630   */\n      dup4\n        /* \"#utility.yul\":4623:4639   */\n      add\n        /* \"#utility.yul\":4616:4643   */\n      mstore\n        /* \"#utility.yul\":4511:4650   */\n      pop\n      pop\n      pop\n      jump\t// out\n        /* \"#utility.yul\":4656:5033   */\n    tag_53:\n        /* \"#utility.yul\":4744:4747   */\n      0x00\n        /* \"#utility.yul\":4772:4811   */\n      tag_126\n        /* \"#utility.yul\":4805:4810   */\n      dup3\n        /* \"#utility.yul\":4772:4811   */\n      tag_50\n      jump\t// in\n    tag_126:\n        /* \"#utility.yul\":4827:4898   */\n      tag_127\n        /* \"#utility.yul\":4891:4897   */\n      dup2\n        /* \"#utility.yul\":4886:4889   */\n      dup6\n        /* \"#utility.yul\":4827:4898   */\n      tag_51\n      jump\t// in\n    tag_127:\n        /* \"#utility.yul\":4820:4898   */\n      swap4\n      pop\n        /* \"#utility.yul\":4907:4972   */\n      tag_128\n        /* \"#utility.yul\":4965:4971   */\n      dup2\n        /* \"#utility.yul\":4960:4963   */\n      dup6\n        /* \"#utility.yul\":4953:4957   */\n      0x20\n        /* \"#utility.yul\":4946:4951   */\n      dup7\n        /* \"#utility.yul\":4942:4958   */\n      add\n        /* \"#utility.yul\":4907:4972   */\n      tag_52\n      jump\t// in\n    tag_128:\n        /* \"#utility.yul\":4997:5026   */\n      tag_129\n        /* \"#utility.yul\":5019:5025   */\n      dup2\n        /* \"#utility.yul\":4997:5026   */\n      tag_39\n      jump\t// in\n    tag_129:\n        /* \"#utility.yul\":4992:4995   */\n      dup5\n        /* \"#utility.yul\":4988:5027   */\n      add\n        /* \"#utility.yul\":4981:5027   */\n      swap2\n      pop\n        /* \"#utility.yul\":4748:5033   */\n      pop\n        /* \"#utility.yul\":4656:5033   */\n      swap3\n      swap2\n      pop\n      pop\n      jump\t// out\n        /* \"#utility.yul\":5039:5157   */\n    tag_54:\n        /* \"#utility.yul\":5126:5150   */\n      tag_131\n        /* \"#utility.yul\":5144:5149   */\n      dup2\n        /* \"#utility.yul\":5126:5150   */\n      tag_47\n      jump\t// in\n    tag_131:\n        /* \"#utility.yul\":5121:5124   */\n      dup3\n        /* \"#utility.yul\":5114:5151   */\n      mstore\n        /* \"#utility.yul\":5039:5157   */\n      pop\n      pop\n      jump\t// out\n        /* \"#utility.yul\":5163:6009   */\n    tag_14:\n        /* \"#utility.yul\":5408:5412   */\n      0x00\n        /* \"#utility.yul\":5446:5449   */\n      0xa0\n        /* \"#utility.yul\":5435:5444   */\n      dup3\n        /* \"#utility.yul\":5431:5450   */\n      add\n        /* \"#utility.yul\":5423:5450   */\n      swap1\n      pop\n        /* \"#utility.yul\":5496:5505   */\n      dup2\n        /* \"#utility.yul\":5490:5494   */\n      dup2\n        /* \"#utility.yul\":5486:5506   */\n      sub\n        /* \"#utility.yul\":5482:5483   */\n      0x00\n        /* \"#utility.yul\":5471:5480   */\n      dup4\n        /* \"#utility.yul\":5467:5484   */\n      add\n        /* \"#utility.yul\":5460:5507   */\n      mstore\n        /* \"#utility.yul\":5524:5602   */\n      tag_133\n        /* \"#utility.yul\":5597:5601   */\n      dup2\n        /* \"#utility.yul\":5588:5594   */\n      dup9\n        /* \"#utility.yul\":5524:5602   */\n      tag_53\n      jump\t// in\n    tag_133:\n        /* \"#utility.yul\":5516:5602   */\n      swap1\n      pop\n        /* \"#utility.yul\":5649:5658   */\n      dup2\n        /* \"#utility.yul\":5643:5647   */\n      dup2\n        /* \"#utility.yul\":5639:5659   */\n      sub\n        /* \"#utility.yul\":5634:5636   */\n      0x20\n        /* \"#utility.yul\":5623:5632   */\n      dup4\n        /* \"#utility.yul\":5619:5637   */\n      add\n        /* \"#utility.yul\":5612:5660   */\n      mstore\n        /* \"#utility.yul\":5677:5755   */\n      tag_134\n        /* \"#utility.yul\":5750:5754   */\n      dup2\n        /* \"#utility.yul\":5741:5747   */\n      dup8\n        /* \"#utility.yul\":5677:5755   */\n      tag_53\n      jump\t// in\n    tag_134:\n        /* \"#utility.yul\":5669:5755   */\n      swap1\n      pop\n        /* \"#utility.yul\":5765:5837   */\n      tag_135\n        /* \"#utility.yul\":5833:5835   */\n      0x40\n        /* \"#utility.yul\":5822:5831   */\n      dup4\n        /* \"#utility.yul\":5818:5836   */\n      add\n        /* \"#utility.yul\":5809:5815   */\n      dup7\n        /* \"#utility.yul\":5765:5837   */\n      tag_54\n      jump\t// in\n    tag_135:\n        /* \"#utility.yul\":5847:5919   */\n      tag_136\n        /* \"#utility.yul\":5915:5917   */\n      0x60\n        /* \"#utility.yul\":5904:5913   */\n      dup4\n        /* \"#utility.yul\":5900:5918   */\n      add\n        /* \"#utility.yul\":5891:5897   */\n      dup6\n        /* \"#utility.yul\":5847:5919   */\n      tag_54\n      jump\t// in\n    tag_136:\n        /* \"#utility.yul\":5929:6002   */\n      tag_137\n        /* \"#utility.yul\":5997:6000   */\n      0x80\n        /* \"#utility.yul\":5986:5995   */\n      dup4\n        /* \"#utility.yul\":5982:6001   */\n      add\n        /* \"#utility.yul\":5973:5979   */\n      dup5\n        /* \"#utility.yul\":5929:6002   */\n      tag_54\n      jump\t// in\n    tag_137:\n        /* \"#utility.yul\":5163:6009   */\n      swap7\n      swap6\n      pop\n      pop\n      pop\n      pop\n      pop\n      pop\n      jump\t// out\n        /* \"#utility.yul\":6015:6195   */\n    tag_55:\n        /* \"#utility.yul\":6063:6140   */\n      0x4e487b7100000000000000000000000000000000000000000000000000000000\n        /* \"#utility.yul\":6060:6061   */\n      0x00\n        /* \"#utility.yul\":6053:6141   */\n      mstore\n        /* \"#utility.yul\":6160:6164   */\n      0x22\n        /* \"#utility.yul\":6157:6158   */\n      0x04\n        /* \"#utility.yul\":6150:6165   */\n      mstore\n        /* \"#utility.yul\":6184:6188   */\n      0x24\n        /* \"#utility.yul\":6181:6182   */\n      0x00\n        /* \"#utility.yul\":6174:6189   */\n      revert\n        /* \"#utility.yul\":6201:6521   */\n    tag_24:\n        /* \"#utility.yul\":6245:6251   */\n      0x00\n        /* \"#utility.yul\":6282:6283   */\n      0x02\n        /* \"#utility.yul\":6276:6280   */\n      dup3\n        /* \"#utility.yul\":6272:6284   */\n      div\n        /* \"#utility.yul\":6262:6284   */\n      swap1\n      pop\n        /* \"#utility.yul\":6329:6330   */\n      0x01\n        /* \"#utility.yul\":6323:6327   */\n      dup3\n        /* \"#utility.yul\":6319:6331   */\n      and\n        /* \"#utility.yul\":6350:6368   */\n      dup1\n        /* \"#utility.yul\":6340:6421   */\n      tag_140\n      jumpi\n        /* \"#utility.yul\":6406:6410   */\n      0x7f\n        /* \"#utility.yul\":6398:6404   */\n      dup3\n        /* \"#utility.yul\":6394:6411   */\n      and\n        /* \"#utility.yul\":6384:6411   */\n      swap2\n      pop\n        /* \"#utility.yul\":6340:6421   */\n    tag_140:\n        /* \"#utility.yul\":6468:6470   */\n      0x20\n        /* \"#utility.yul\":6460:6466   */\n      dup3\n        /* \"#utility.yul\":6457:6471   */\n      lt\n        /* \"#utility.yul\":6437:6455   */\n      dup2\n        /* \"#utility.yul\":6434:6472   */\n      sub\n        /* \"#utility.yul\":6431:6515   */\n      tag_141\n      jumpi\n        /* \"#utility.yul\":6487:6505   */\n      tag_142\n      tag_55\n      jump\t// in\n    tag_142:\n        /* \"#utility.yul\":6431:6515   */\n    tag_141:\n        /* \"#utility.yul\":6252:6521   */\n      pop\n        /* \"#utility.yul\":6201:6521   */\n      swap2\n      swap1\n      pop\n      jump\t// out\n        /* \"#utility.yul\":6527:6668   */\n    tag_56:\n        /* \"#utility.yul\":6576:6580   */\n      0x00\n        /* \"#utility.yul\":6599:6602   */\n      dup2\n        /* \"#utility.yul\":6591:6602   */\n      swap1\n      pop\n        /* \"#utility.yul\":6622:6625   */\n      dup2\n        /* \"#utility.yul\":6619:6620   */\n      0x00\n        /* \"#utility.yul\":6612:6626   */\n      mstore\n        /* \"#utility.yul\":6656:6660   */\n      0x20\n        /* \"#utility.yul\":6653:6654   */\n      0x00\n        /* \"#utility.yul\":6643:6661   */\n      keccak256\n        /* \"#utility.yul\":6635:6661   */\n      swap1\n      pop\n        /* \"#utility.yul\":6527:6668   */\n      swap2\n      swap1\n      pop\n      jump\t// out\n        /* \"#utility.yul\":6674:6767   */\n    tag_57:\n        /* \"#utility.yul\":6711:6717   */\n      0x00\n        /* \"#utility.yul\":6758:6760   */\n      0x20\n        /* \"#utility.yul\":6753:6755   */\n      0x1f\n        /* \"#utility.yul\":6746:6751   */\n      dup4\n        /* \"#utility.yul\":6742:6756   */\n      add\n        /* \"#utility.yul\":6738:6761   */\n      div\n        /* \"#utility.yul\":6728:6761   */\n      swap1\n      pop\n        /* \"#utility.yul\":6674:6767   */\n      swap2\n      swap1\n      pop\n      jump\t// out\n        /* \"#utility.yul\":6773:6880   */\n    tag_58:\n        /* \"#utility.yul\":6817:6825   */\n      0x00\n        /* \"#utility.yul\":6867:6872   */\n      dup3\n        /* \"#utility.yul\":6861:6865   */\n      dup3\n        /* \"#utility.yul\":6857:6873   */\n      shl\n        /* \"#utility.yul\":6836:6873   */\n      swap1\n      pop\n        /* \"#utility.yul\":6773:6880   */\n      swap3\n      swap2\n      pop\n      pop\n      jump\t// out\n        /* \"#utility.yul\":6886:7279   */\n    tag_59:\n        /* \"#utility.yul\":6955:6961   */\n      0x00\n        /* \"#utility.yul\":7005:7006   */\n      0x08\n        /* \"#utility.yul\":6993:7003   */\n      dup4\n        /* \"#utility.yul\":6989:7007   */\n      mul\n        /* \"#utility.yul\":7028:7125   */\n      tag_147\n        /* \"#utility.yul\":7058:7124   */\n      0xffffffffffffffffffffffffffffffffffffffffffffffffffffffffffffffff\n        /* \"#utility.yul\":7047:7056   */\n      dup3\n        /* \"#utility.yul\":7028:7125   */\n      tag_58\n      jump\t// in\n    tag_147:\n        /* \"#utility.yul\":7146:7185   */\n      tag_148\n        /* \"#utility.yul\":7176:7184   */\n      dup7\n        /* \"#utility.yul\":7165:7174   */\n      dup4\n        /* \"#utility.yul\":7146:7185   */\n      tag_58\n      jump\t// in\n    tag_148:\n        /* \"#utility.yul\":7134:7185   */\n      swap6\n      pop\n        /* \"#utility.yul\":7218:7222   */\n      dup1\n        /* \"#utility.yul\":7214:7223   */\n      not\n        /* \"#utility.yul\":7207:7212   */\n      dup5\n        /* \"#utility.yul\":7203:7224   */\n      and\n        /* \"#utility.yul\":7194:7224   */\n      swap4\n      pop\n        /* \"#utility.yul\":7267:7271   */\n      dup1\n        /* \"#utility.yul\":7257:7265   */\n      dup7\n        /* \"#utility.yul\":7253:7272   */\n      and\n        /* \"#utility.yul\":7246:7251   */\n      dup5\n        /* \"#utility.yul\":7243:7273   */\n      or\n        /* \"#utility.yul\":7233:7273   */\n      swap3\n      pop\n        /* \"#utility.yul\":6962:7279   */\n      pop\n      pop\n        /* \"#utility.yul\":6886:7279   */\n      swap4\n      swap3\n      pop\n      pop\n      pop\n      jump\t// out\n        /* \"#utility.yul\":7285:7345   */\n    tag_60:\n        /* \"#utility.yul\":7313:7316   */\n      0x00\n        /* \"#utility.yul\":7334:7339   */\n      dup2\n        /* \"#utility.yul\":7327:7339   */\n      swap1\n      pop\n        /* \"#utility.yul\":7285:7345   */\n      swap2\n      swap1\n      pop\n      jump\t// out\n        /* \"#utility.yul\":7351:7493   */\n    tag_61:\n        /* \"#utility.yul\":7401:7410   */\n      0x00\n        /* \"#utility.yul\":7434:7487   */\n      tag_151\n        /* \"#utility.yul\":7452:7486   */\n      tag_152\n        /* \"#utility.yul\":7461:7485   */\n      tag_153\n        /* \"#utility.yul\":7479:7484   */\n      dup5\n        /* \"#utility.yul\":7461:7485   */\n      tag_47\n      jump\t// in\n    tag_153:\n        /* \"#utility.yul\":7452:7486   */\n      tag_60\n      jump\t// in\n    tag_152:\n        /* \"#utility.yul\":7434:7487   */\n      tag_47\n      jump\t// in\n    tag_151:\n        /* \"#utility.yul\":7421:7487   */\n      swap1\n      pop\n        /* \"#utility.yul\":7351:7493   */\n      swap2\n      swap1\n      pop\n      jump\t// out\n        /* \"#utility.yul\":7499:7574   */\n    tag_62:\n        /* \"#utility.yul\":7542:7545   */\n      0x00\n        /* \"#utility.yul\":7563:7568   */\n      dup2\n        /* \"#utility.yul\":7556:7568   */\n      swap1\n      pop\n        /* \"#utility.yul\":7499:7574   */\n      swap2\n      swap1\n      pop\n      jump\t// out\n        /* \"#utility.yul\":7580:7849   */\n    tag_63:\n        /* \"#utility.yul\":7690:7729   */\n      tag_156\n        /* \"#utility.yul\":7721:7728   */\n      dup4\n        /* \"#utility.yul\":7690:7729   */\n      tag_61\n      jump\t// in\n    tag_156:\n        /* \"#utility.yul\":7751:7842   */\n      tag_157\n        /* \"#utility.yul\":7800:7841   */\n      tag_158\n        /* \"#utility.yul\":7824:7840   */\n      dup3\n        /* \"#utility.yul\":7800:7841   */\n      tag_62\n      jump\t// in\n    tag_158:\n        /* \"#utility.yul\":7792:7798   */\n      dup5\n        /* \"#utility.yul\":7785:7789   */\n      dup5\n        /* \"#utility.yul\":7779:7790   */\n      sload\n        /* \"#utility.yul\":7751:7842   */\n      tag_59\n      jump\t// in\n    tag_157:\n        /* \"#utility.yul\":7745:7749   */\n      dup3\n        /* \"#utility.yul\":7738:7843   */\n      sstore\n        /* \"#utility.yul\":7656:7849   */\n      pop\n        /* \"#utility.yul\":7580:7849   */\n      pop\n      pop\n      pop\n      jump\t// out\n        /* \"#utility.yul\":7855:7928   */\n    tag_64:\n        /* \"#utility.yul\":7900:7903   */\n      0x00\n        /* \"#utility.yul\":7855:7928   */\n      swap1\n      jump\t// out\n        /* \"#utility.yul\":7934:8123   */\n    tag_65:\n        /* \"#utility.yul\":8011:8043   */\n      tag_161\n      tag_64\n      jump\t// in\n    tag_161:\n        /* \"#utility.yul\":8052:8117   */\n      tag_162\n        /* \"#utility.yul\":8110:8116   */\n      dup2\n        /* \"#utility.yul\":8102:8108   */\n      dup5\n        /* \"#utility.yul\":8096:8100   */\n      dup5\n        /* \"#utility.yul\":8052:8117   */\n      tag_63\n      jump\t// in\n    tag_162:\n        /* \"#utility.yul\":7987:8123   */\n      pop\n        /* \"#utility.yul\":7934:8123   */\n      pop\n      pop\n      jump\t// out\n        /* \"#utility.yul\":8129:8315   */\n    tag_66:\n        /* \"#utility.yul\":8189:8309   */\n    tag_164:\n        /* \"#utility.yul\":8206:8209   */\n      dup2\n        /* \"#utility.yul\":8199:8204   */\n      dup2\n        /* \"#utility.yul\":8196:8210   */\n      lt\n        /* \"#utility.yul\":8189:8309   */\n      iszero\n      tag_166\n      jumpi\n        /* \"#utility.yul\":8260:8299   */\n      tag_167\n        /* \"#utility.yul\":8297:8298   */\n      0x00\n        /* \"#utility.yul\":8290:8295   */\n      dup3\n        /* \"#utility.yul\":8260:8299   */\n      tag_65\n      jump\t// in\n    tag_167:\n        /* \"#utility.yul\":8233:8234   */\n      0x01\n        /* \"#utility.yul\":8226:8231   */\n      dup2\n        /* \"#utility.yul\":8222:8235   */\n      add\n        /* \"#utility.yul\":8213:8235   */\n      swap1\n      pop\n        /* \"#utility.yul\":8189:8309   */\n      jump(tag_164)\n    tag_166:\n        /* \"#utility.yul\":8129:8315   */\n      pop\n      pop\n      jump\t// out\n        /* \"#utility.yul\":8321:8864   */\n    tag_67:\n        /* \"#utility.yul\":8422:8424   */\n      0x1f\n        /* \"#utility.yul\":8417:8420   */\n      dup3\n        /* \"#utility.yul\":8414:8425   */\n      gt\n        /* \"#utility.yul\":8411:8857   */\n      iszero\n      tag_169\n      jumpi\n        /* \"#utility.yul\":8456:8494   */\n      tag_170\n        /* \"#utility.yul\":8488:8493   */\n      dup2\n        /* \"#utility.yul\":8456:8494   */\n      tag_56\n      jump\t// in\n    tag_170:\n        /* \"#utility.yul\":8540:8569   */\n      tag_171\n        /* \"#utility.yul\":8558:8568   */\n      dup5\n        /* \"#utility.yul\":8540:8569   */\n      tag_57\n      jump\t// in\n    tag_171:\n        /* \"#utility.yul\":8530:8538   */\n      dup2\n        /* \"#utility.yul\":8526:8570   */\n      add\n        /* \"#utility.yul\":8723:8725   */\n      0x20\n        /* \"#utility.yul\":8711:8721   */\n      dup6\n        /* \"#utility.yul\":8708:8726   */\n      lt\n        /* \"#utility.yul\":8705:8754   */\n      iszero\n      tag_172\n      jumpi\n        /* \"#utility.yul\":8744:8752   */\n      dup2\n        /* \"#utility.yul\":8729:8752   */\n      swap1\n      pop\n        /* \"#utility.yul\":8705:8754   */\n    tag_172:\n        /* \"#utility.yul\":8767:8847   */\n      tag_173\n        /* \"#utility.yul\":8823:8845   */\n      tag_174\n        /* \"#utility.yul\":8841:8844   */\n      dup6\n        /* \"#utility.yul\":8823:8845   */\n      tag_57\n      jump\t// in\n    tag_174:\n        /* \"#utility.yul\":8813:8821   */\n      dup4\n        /* \"#utility.yul\":8809:8846   */\n      add\n        /* \"#utility.yul\":8796:8807   */\n      dup3\n        /* \"#utility.yul\":8767:8847   */\n      tag_66\n      jump\t// in\n    tag_173:\n        /* \"#utility.yul\":8426:8857   */\n      pop\n      pop\n        /* \"#utility.yul\":8411:8857   */\n    tag_169:\n        /* \"#utility.yul\":8321:8864   */\n      pop\n      pop\n      pop\n      jump\t// out\n        /* \"#utility.yul\":8870:8987   */\n    tag_68:\n        /* \"#utility.yul\":8924:8932   */\n      0x00\n        /* \"#utility.yul\":8974:8979   */\n      dup3\n        /* \"#utility.yul\":8968:8972   */\n      dup3\n        /* \"#utility.yul\":8964:8980   */\n      shr\n        /* \"#utility.yul\":8943:8980   */\n      swap1\n      pop\n        /* \"#utility.yul\":8870:8987   */\n      swap3\n      swap2\n      pop\n      pop\n      jump\t// out\n        /* \"#utility.yul\":8993:9162   */\n    tag_69:\n        /* \"#utility.yul\":9037:9043   */\n      0x00\n        /* \"#utility.yul\":9070:9121   */\n      tag_177\n        /* \"#utility.yul\":9118:9119   */\n      0x00\n        /* \"#utility.yul\":9114:9120   */\n      not\n        /* \"#utility.yul\":9106:9111   */\n      dup5\n        /* \"#utility.yul\":9103:9104   */\n      0x08\n        /* \"#utility.yul\":9099:9112   */\n      mul\n        /* \"#utility.yul\":9070:9121   */\n      tag_68\n      jump\t// in\n    tag_177:\n        /* \"#utility.yul\":9066:9122   */\n      not\n        /* \"#utility.yul\":9151:9155   */\n      dup1\n        /* \"#utility.yul\":9145:9149   */\n      dup4\n        /* \"#utility.yul\":9141:9156   */\n      and\n        /* \"#utility.yul\":9131:9156   */\n      swap2\n      pop\n        /* \"#utility.yul\":9044:9162   */\n      pop\n        /* \"#utility.yul\":8993:9162   */\n      swap3\n      swap2\n      pop\n      pop\n      jump\t// out\n        /* \"#utility.yul\":9167:9462   */\n    tag_70:\n        /* \"#utility.yul\":9243:9247   */\n      0x00\n        /* \"#utility.yul\":9389:9418   */\n      tag_179\n        /* \"#utility.yul\":9414:9417   */\n      dup4\n        /* \"#utility.yul\":9408:9412   */\n      dup4\n        /* \"#utility.yul\":9389:9418   */\n      tag_69\n      jump\t// in\n    tag_179:\n        /* \"#utility.yul\":9381:9418   */\n      swap2\n      pop\n        /* \"#utility.yul\":9451:9454   */\n      dup3\n        /* \"#utility.yul\":9448:9449   */\n      0x02\n        /* \"#utility.yul\":9444:9455   */\n      mul\n        /* \"#utility.yul\":9438:9442   */\n      dup3\n        /* \"#utility.yul\":9435:9456   */\n      or\n        /* \"#utility.yul\":9427:9456   */\n      swap1\n      pop\n        /* \"#utility.yul\":9167:9462   */\n      swap3\n      swap2\n      pop\n      pop\n      jump\t// out\n        /* \"#utility.yul\":9467:10862   */\n    tag_17:\n        /* \"#utility.yul\":9584:9621   */\n      tag_181\n        /* \"#utility.yul\":9617:9620   */\n      dup3\n        /* \"#utility.yul\":9584:9621   */\n      tag_50\n      jump\t// in\n    tag_181:\n        /* \"#utility.yul\":9686:9704   */\n      0xffffffffffffffff\n        /* \"#utility.yul\":9678:9684   */\n      dup2\n        /* \"#utility.yul\":9675:9705   */\n      gt\n        /* \"#utility.yul\":9672:9728   */\n      iszero\n      tag_182\n      jumpi\n        /* \"#utility.yul\":9708:9726   */\n      tag_183\n      tag_40\n      jump\t// in\n    tag_183:\n        /* \"#utility.yul\":9672:9728   */\n    tag_182:\n        /* \"#utility.yul\":9752:9790   */\n      tag_184\n        /* \"#utility.yul\":9784:9788   */\n      dup3\n        /* \"#utility.yul\":9778:9789   */\n      sload\n        /* \"#utility.yul\":9752:9790   */\n      tag_24\n      jump\t// in\n    tag_184:\n        /* \"#utility.yul\":9837:9904   */\n      tag_185\n        /* \"#utility.yul\":9897:9903   */\n      dup3\n        /* \"#utility.yul\":9889:9895   */\n      dup3\n        /* \"#utility.yul\":9883:9887   */\n      dup6\n        /* \"#utility.yul\":9837:9904   */\n      tag_67\n      jump\t// in\n    tag_185:\n        /* \"#utility.yul\":9931:9932   */\n      0x00\n        /* \"#utility.yul\":9955:9959   */\n      0x20\n        /* \"#utility.yul\":9942:9959   */\n      swap1\n      pop\n        /* \"#utility.yul\":9987:9989   */\n      0x1f\n        /* \"#utility.yul\":9979:9985   */\n      dup4\n        /* \"#utility.yul\":9976:9990   */\n      gt\n        /* \"#utility.yul\":10004:10005   */\n      0x01\n        /* \"#utility.yul\":9999:10617   */\n      dup2\n      eq\n      tag_187\n      jumpi\n        /* \"#utility.yul\":10661:10662   */\n      0x00\n        /* \"#utility.yul\":10678:10684   */\n      dup5\n        /* \"#utility.yul\":10675:10752   */\n      iszero\n      tag_188\n      jumpi\n        /* \"#utility.yul\":10727:10736   */\n      dup3\n        /* \"#utility.yul\":10722:10725   */\n      dup8\n        /* \"#utility.yul\":10718:10737   */\n      add\n        /* \"#utility.yul\":10712:10738   */\n      mload\n        /* \"#utility.yul\":10703:10738   */\n      swap1\n      pop\n        /* \"#utility.yul\":10675:10752   */\n    tag_188:\n        /* \"#utility.yul\":10778:10845   */\n      tag_189\n        /* \"#utility.yul\":10838:10844   */\n      dup6\n        /* \"#utility.yul\":10831:10836   */\n      dup3\n        /* \"#utility.yul\":10778:10845   */\n      tag_70\n      jump\t// in\n    tag_189:\n        /* \"#utility.yul\":10772:10776   */\n      dup7\n        /* \"#utility.yul\":10765:10846   */\n      sstore\n        /* \"#utility.yul\":10634:10856   */\n      pop\n        /* \"#utility.yul\":9969:10856   */\n      jump(tag_186)\n        /* \"#utility.yul\":9999:10617   */\n    tag_187:\n        /* \"#utility.yul\":10051:10055   */\n      0x1f\n        /* \"#utility.yul\":10047:10056   */\n      not\n        /* \"#utility.yul\":10039:10045   */\n      dup5\n        /* \"#utility.yul\":10035:10057   */\n      and\n        /* \"#utility.yul\":10085:10122   */\n      tag_190\n        /* \"#utility.yul\":10117:10121   */\n      dup7\n        /* \"#utility.yul\":10085:10122   */\n      tag_56\n      jump\t// in\n    tag_190:\n        /* \"#utility.yul\":10144:10145   */\n      0x00\n        /* \"#utility.yul\":10158:10366   */\n    tag_191:\n        /* \"#utility.yul\":10172:10179   */\n      dup3\n        /* \"#utility.yul\":10169:10170   */\n      dup2\n        /* \"#utility.yul\":10166:10180   */\n      lt\n        /* \"#utility.yul\":10158:10366   */\n      iszero\n      tag_193\n      jumpi\n        /* \"#utility.yul\":10251:10260   */\n      dup5\n        /* \"#utility.yul\":10246:10249   */\n      dup10\n        /* \"#utility.yul\":10242:10261   */\n      add\n        /* \"#utility.yul\":10236:10262   */\n      mload\n        /* \"#utility.yul\":10228:10234   */\n      dup3\n        /* \"#utility.yul\":10221:10263   */\n      sstore\n        /* \"#utility.yul\":10302:10303   */\n      0x01\n        /* \"#utility.yul\":10294:10300   */\n      dup3\n        /* \"#utility.yul\":10290:10304   */\n      add\n        /* \"#utility.yul\":10280:10304   */\n      swap2\n      pop\n        /* \"#utility.yul\":10349:10351   */\n      0x20\n        /* \"#utility.yul\":10338:10347   */\n      dup6\n        /* \"#utility.yul\":10334:10352   */\n      add\n        /* \"#utility.yul\":10321:10352   */\n      swap5\n      pop\n        /* \"#utility.yul\":10195:10199   */\n      0x20\n        /* \"#utility.yul\":10192:10193   */\n      dup2\n        /* \"#utility.yul\":10188:10200   */\n      add\n        /* \"#utility.yul\":10183:10200   */\n      swap1\n      pop\n        /* \"#utility.yul\":10158:10366   */\n      jump(tag_191)\n    tag_193:\n        /* \"#utility.yul\":10394:10400   */\n      dup7\n        /* \"#utility.yul\":10385:10392   */\n      dup4\n        /* \"#utility.yul\":10382:10401   */\n      lt\n        /* \"#utility.yul\":10379:10558   */\n      iszero\n      tag_194\n      jumpi\n        /* \"#utility.yul\":10452:10461   */\n      dup5\n        /* \"#utility.yul\":10447:10450   */\n      dup10\n        /* \"#utility.yul\":10443:10462   */\n      add\n        /* \"#utility.yul\":10437:10463   */\n      mload\n        /* \"#utility.yul\":10495:10543   */\n      tag_195\n        /* \"#utility.yul\":10537:10541   */\n      0x1f\n        /* \"#utility.yul\":10529:10535   */\n      dup10\n        /* \"#utility.yul\":10525:10542   */\n      and\n        /* \"#utility.yul\":10514:10523   */\n      dup3\n        /* \"#utility.yul\":10495:10543   */\n      tag_69\n      jump\t// in\n    tag_195:\n        /* \"#utility.yul\":10487:10493   */\n      dup4\n        /* \"#utility.yul\":10480:10544   */\n      sstore\n        /* \"#utility.yul\":10402:10558   */\n      pop\n        /* \"#utility.yul\":10379:10558   */\n    tag_194:\n        /* \"#utility.yul\":10604:10605   */\n      0x01\n        /* \"#utility.yul\":10600:10601   */\n      0x02\n        /* \"#utility.yul\":10592:10598   */\n      dup9\n        /* \"#utility.yul\":10588:10602   */\n      mul\n        /* \"#utility.yul\":10584:10606   */\n      add\n        /* \"#utility.yul\":10578:10582   */\n      dup9\n        /* \"#utility.yul\":10571:10607   */\n      sstore\n        /* \"#utility.yul\":10006:10617   */\n      pop\n      pop\n      pop\n        /* \"#utility.yul\":9969:10856   */\n    tag_186:\n      pop\n        /* \"#utility.yul\":9559:10862   */\n      pop\n      pop\n      pop\n        /* \"#utility.yul\":9467:10862   */\n      pop\n      pop\n      jump\t// out\n        /* \"#utility.yul\":10868:11603   */\n    tag_20:\n        /* \"#utility.yul\":11085:11089   */\n      0x00\n        /* \"#utility.yul\":11123:11126   */\n      0x80\n        /* \"#utility.yul\":11112:11121   */\n      dup3\n        /* \"#utility.yul\":11108:11127   */\n      add\n        /* \"#utility.yul\":11100:11127   */\n      swap1\n      pop\n        /* \"#utility.yul\":11173:11182   */\n      dup2\n        /* \"#utility.yul\":11167:11171   */\n      dup2\n        /* \"#utility.yul\":11163:11183   */\n      sub\n        /* \"#utility.yul\":11159:11160   */\n      0x00\n        /* \"#utility.yul\":11148:11157   */\n      dup4\n        /* \"#utility.yul\":11144:11161   */\n      add\n        /* \"#utility.yul\":11137:11184   */\n      mstore\n        /* \"#utility.yul\":11201:11279   */\n      tag_197\n        /* \"#utility.yul\":11274:11278   */\n      dup2\n        /* \"#utility.yul\":11265:11271   */\n      dup8\n        /* \"#utility.yul\":11201:11279   */\n      tag_53\n      jump\t// in\n    tag_197:\n        /* \"#utility.yul\":11193:11279   */\n      swap1\n      pop\n        /* \"#utility.yul\":11289:11361   */\n      tag_198\n        /* \"#utility.yul\":11357:11359   */\n      0x20\n        /* \"#utility.yul\":11346:11355   */\n      dup4\n        /* \"#utility.yul\":11342:11360   */\n      add\n        /* \"#utility.yul\":11333:11339   */\n      dup7\n        /* \"#utility.yul\":11289:11361   */\n      tag_54\n      jump\t// in\n    tag_198:\n        /* \"#utility.yul\":11371:11443   */\n      tag_199\n        /* \"#utility.yul\":11439:11441   */\n      0x40\n        /* \"#utility.yul\":11428:11437   */\n      dup4\n        /* \"#utility.yul\":11424:11442   */\n      add\n        /* \"#utility.yul\":11415:11421   */\n      dup6\n        /* \"#utility.yul\":11371:11443   */\n      tag_54\n      jump\t// in\n    tag_199:\n        /* \"#utility.yul\":11490:11499   */\n      dup2\n        /* \"#utility.yul\":11484:11488   */\n      dup2\n        /* \"#utility.yul\":11480:11500   */\n      sub\n        /* \"#utility.yul\":11475:11477   */\n      0x60\n        /* \"#utility.yul\":11464:11473   */\n      dup4\n        /* \"#utility.yul\":11460:11478   */\n      add\n        /* \"#utility.yul\":11453:11501   */\n      mstore\n        /* \"#utility.yul\":11518:11596   */\n      tag_200\n        /* \"#utility.yul\":11591:11595   */\n      dup2\n        /* \"#utility.yul\":11582:11588   */\n      dup5\n        /* \"#utility.yul\":11518:11596   */\n      tag_53\n      jump\t// in\n    tag_200:\n        /* \"#utility.yul\":11510:11596   */\n      swap1\n      pop\n        /* \"#utility.yul\":10868:11603   */\n      swap6\n      swap5\n      pop\n      pop\n      pop\n      pop\n      pop\n      jump\t// out\n        /* \"#utility.yul\":11609:11789   */\n    tag_71:\n        /* \"#utility.yul\":11657:11734   */\n      0x4e487b7100000000000000000000000000000000000000000000000000000000\n        /* \"#utility.yul\":11654:11655   */\n      0x00\n        /* \"#utility.yul\":11647:11735   */\n      mstore\n        /* \"#utility.yul\":11754:11758   */\n      0x11\n        /* \"#utility.yul\":11751:11752   */\n      0x04\n        /* \"#utility.yul\":11744:11759   */\n      mstore\n        /* \"#utility.yul\":11778:11782   */\n      0x24\n        /* \"#utility.yul\":11775:11776   */\n      0x00\n        /* \"#utility.yul\":11768:11783   */\n      revert\n        /* \"#utility.yul\":11795:11986   */\n    tag_22:\n        /* \"#utility.yul\":11835:11838   */\n      0x00\n        /* \"#utility.yul\":11854:11874   */\n      tag_203\n        /* \"#utility.yul\":11872:11873   */\n      dup3\n        /* \"#utility.yul\":11854:11874   */\n      tag_47\n      jump\t// in\n    tag_203:\n        /* \"#utility.yul\":11849:11874   */\n      swap2\n      pop\n        /* \"#utility.yul\":11888:11908   */\n      tag_204\n        /* \"#utility.yul\":11906:11907   */\n      dup4\n        /* \"#utility.yul\":11888:11908   */\n      tag_47\n      jump\t// in\n    tag_204:\n        /* \"#utility.yul\":11883:11908   */\n      swap3\n      pop\n        /* \"#utility.yul\":11931:11932   */\n      dup3\n        /* \"#utility.yul\":11928:11929   */\n      dup3\n        /* \"#utility.yul\":11924:11933   */\n      add\n        /* \"#utility.yul\":11917:11933   */\n      swap1\n      pop\n        /* \"#utility.yul\":11952:11955   */\n      dup1\n        /* \"#utility.yul\":11949:11950   */\n      dup3\n        /* \"#utility.yul\":11946:11956   */\n      gt\n        /* \"#utility.yul\":11943:11979   */\n      iszero\n      tag_205\n      jumpi\n        /* \"#utility.yul\":11959:11977   */\n      tag_206\n      tag_71\n      jump\t// in\n    tag_206:\n        /* \"#utility.yul\":11943:11979   */\n    tag_205:\n        /* \"#utility.yul\":11795:11986   */\n      swap3\n      swap2\n      pop\n      pop\n      jump\t// out\n\n    auxdata: 0xa26469706673582212207f2b4f27b5e45d0ddc3bc1e5c887daff79fb0ddcf360e725b59e0adecc08087764736f6c634300081a0033\n}\n",
				"bytecode": {
					"linkReferences": {},
					"object": "608060405260015f553480156012575f80fd5b50610966806100205f395ff3fe608060405234801561000f575f80fd5b5060043610610034575f3560e01c80639cc8f13914610038578063b588d72214610054575b5f80fd5b610052600480360381019061004d9190610435565b610088565b005b61006e600480360381019061006991906104bd565b610177565b60405161007f959493929190610557565b60405180910390f35b8260015f805481526020019081526020015f205f0190816100a991906107b0565b508160015f805481526020019081526020015f2060010190816100cc91906107b0565b508060015f805481526020019081526020015f20600201819055505f5460015f805481526020019081526020015f20600301819055504260015f805481526020019081526020015f20600401819055507f04b62f20d83748e85c3d6f6c305abb1272efb098c6fdcb7ca4cfe594a0885145835f548385604051610152949392919061087f565b60405180910390a160015f8082825461016b91906108fd565b92505081905550505050565b6001602052805f5260405f205f91509050805f018054610196906105e3565b80601f01602080910402602001604051908101604052809291908181526020018280546101c2906105e3565b801561020d5780601f106101e45761010080835404028352916020019161020d565b820191905f5260205f20905b8154815290600101906020018083116101f057829003601f168201915b505050505090806001018054610222906105e3565b80601f016020809104026020016040519081016040528092919081815260200182805461024e906105e3565b80156102995780601f1061027057610100808354040283529160200191610299565b820191905f5260205f20905b81548152906001019060200180831161027c57829003601f168201915b5050505050908060020154908060030154908060040154905085565b5f604051905090565b5f80fd5b5f80fd5b5f80fd5b5f80fd5b5f601f19601f8301169050919050565b7f4e487b71000000000000000000000000000000000000000000000000000000005f52604160045260245ffd5b610314826102ce565b810181811067ffffffffffffffff82111715610333576103326102de565b5b80604052505050565b5f6103456102b5565b9050610351828261030b565b919050565b5f67ffffffffffffffff8211156103705761036f6102de565b5b610379826102ce565b9050602081019050919050565b828183375f83830152505050565b5f6103a66103a184610356565b61033c565b9050828152602081018484840111156103c2576103c16102ca565b5b6103cd848285610386565b509392505050565b5f82601f8301126103e9576103e86102c6565b5b81356103f9848260208601610394565b91505092915050565b5f819050919050565b61041481610402565b811461041e575f80fd5b50565b5f8135905061042f8161040b565b92915050565b5f805f6060848603121561044c5761044b6102be565b5b5f84013567ffffffffffffffff811115610469576104686102c2565b5b610475868287016103d5565b935050602084013567ffffffffffffffff811115610496576104956102c2565b5b6104a2868287016103d5565b92505060406104b386828701610421565b9150509250925092565b5f602082840312156104d2576104d16102be565b5b5f6104df84828501610421565b91505092915050565b5f81519050919050565b5f82825260208201905092915050565b8281835e5f83830152505050565b5f61051a826104e8565b61052481856104f2565b9350610534818560208601610502565b61053d816102ce565b840191505092915050565b61055181610402565b82525050565b5f60a0820190508181035f83015261056f8188610510565b905081810360208301526105838187610510565b90506105926040830186610548565b61059f6060830185610548565b6105ac6080830184610548565b9695505050505050565b7f4e487b71000000000000000000000000000000000000000000000000000000005f52602260045260245ffd5b5f60028204905060018216806105fa57607f821691505b60208210810361060d5761060c6105b6565b5b50919050565b5f819050815f5260205f209050919050565b5f6020601f8301049050919050565b5f82821b905092915050565b5f6008830261066f7fffffffffffffffffffffffffffffffffffffffffffffffffffffffffffffffff82610634565b6106798683610634565b95508019841693508086168417925050509392505050565b5f819050919050565b5f6106b46106af6106aa84610402565b610691565b610402565b9050919050565b5f819050919050565b6106cd8361069a565b6106e16106d9826106bb565b848454610640565b825550505050565b5f90565b6106f56106e9565b6107008184846106c4565b505050565b5b81811015610723576107185f826106ed565b600181019050610706565b5050565b601f8211156107685761073981610613565b61074284610625565b81016020851015610751578190505b61076561075d85610625565b830182610705565b50505b505050565b5f82821c905092915050565b5f6107885f198460080261076d565b1980831691505092915050565b5f6107a08383610779565b9150826002028217905092915050565b6107b9826104e8565b67ffffffffffffffff8111156107d2576107d16102de565b5b6107dc82546105e3565b6107e7828285610727565b5f60209050601f831160018114610818575f8415610806578287015190505b6108108582610795565b865550610877565b601f19841661082686610613565b5f5b8281101561084d57848901518255600182019150602085019450602081019050610828565b8683101561086a5784890151610866601f891682610779565b8355505b6001600288020188555050505b505050505050565b5f6080820190508181035f8301526108978187610510565b90506108a66020830186610548565b6108b36040830185610548565b81810360608301526108c58184610510565b905095945050505050565b7f4e487b71000000000000000000000000000000000000000000000000000000005f52601160045260245ffd5b5f61090782610402565b915061091283610402565b925082820190508082111561092a576109296108d0565b5b9291505056fea26469706673582212207f2b4f27b5e45d0ddc3bc1e5c887daff79fb0ddcf360e725b59e0adecc08087764736f6c634300081a0033",
					"opcodes": "PUSH1 0x80 PUSH1 0x40 MSTORE PUSH1 0x1 PUSH0 SSTORE CALLVALUE DUP1 ISZERO PUSH1 0x12 JUMPI PUSH0 DUP1 REVERT JUMPDEST POP PUSH2 0x966 DUP1 PUSH2 0x20 PUSH0 CODECOPY PUSH0 RETURN INVALID PUSH1 0x80 PUSH1 0x40 MSTORE CALLVALUE DUP1 ISZERO PUSH2 0xF JUMPI PUSH0 DUP1 REVERT JUMPDEST POP PUSH1 0x4 CALLDATASIZE LT PUSH2 0x34 JUMPI PUSH0 CALLDATALOAD PUSH1 0xE0 SHR DUP1 PUSH4 0x9CC8F139 EQ PUSH2 0x38 JUMPI DUP1 PUSH4 0xB588D722 EQ PUSH2 0x54 JUMPI JUMPDEST PUSH0 DUP1 REVERT JUMPDEST PUSH2 0x52 PUSH1 0x4 DUP1 CALLDATASIZE SUB DUP2 ADD SWAP1 PUSH2 0x4D SWAP2 SWAP1 PUSH2 0x435 JUMP JUMPDEST PUSH2 0x88 JUMP JUMPDEST STOP JUMPDEST PUSH2 0x6E PUSH1 0x4 DUP1 CALLDATASIZE SUB DUP2 ADD SWAP1 PUSH2 0x69 SWAP2 SWAP1 PUSH2 0x4BD JUMP JUMPDEST PUSH2 0x177 JUMP JUMPDEST PUSH1 0x40 MLOAD PUSH2 0x7F SWAP6 SWAP5 SWAP4 SWAP3 SWAP2 SWAP1 PUSH2 0x557 JUMP JUMPDEST PUSH1 0x40 MLOAD DUP1 SWAP2 SUB SWAP1 RETURN JUMPDEST DUP3 PUSH1 0x1 PUSH0 DUP1 SLOAD DUP2 MSTORE PUSH1 0x20 ADD SWAP1 DUP2 MSTORE PUSH1 0x20 ADD PUSH0 KECCAK256 PUSH0 ADD SWAP1 DUP2 PUSH2 0xA9 SWAP2 SWAP1 PUSH2 0x7B0 JUMP JUMPDEST POP DUP2 PUSH1 0x1 PUSH0 DUP1 SLOAD DUP2 MSTORE PUSH1 0x20 ADD SWAP1 DUP2 MSTORE PUSH1 0x20 ADD PUSH0 KECCAK256 PUSH1 0x1 ADD SWAP1 DUP2 PUSH2 0xCC SWAP2 SWAP1 PUSH2 0x7B0 JUMP JUMPDEST POP DUP1 PUSH1 0x1 PUSH0 DUP1 SLOAD DUP2 MSTORE PUSH1 0x20 ADD SWAP1 DUP2 MSTORE PUSH1 0x20 ADD PUSH0 KECCAK256 PUSH1 0x2 ADD DUP2 SWAP1 SSTORE POP PUSH0 SLOAD PUSH1 0x1 PUSH0 DUP1 SLOAD DUP2 MSTORE PUSH1 0x20 ADD SWAP1 DUP2 MSTORE PUSH1 0x20 ADD PUSH0 KECCAK256 PUSH1 0x3 ADD DUP2 SWAP1 SSTORE POP TIMESTAMP PUSH1 0x1 PUSH0 DUP1 SLOAD DUP2 MSTORE PUSH1 0x20 ADD SWAP1 DUP2 MSTORE PUSH1 0x20 ADD PUSH0 KECCAK256 PUSH1 0x4 ADD DUP2 SWAP1 SSTORE POP PUSH32 0x4B62F20D83748E85C3D6F6C305ABB1272EFB098C6FDCB7CA4CFE594A0885145 DUP4 PUSH0 SLOAD DUP4 DUP6 PUSH1 0x40 MLOAD PUSH2 0x152 SWAP5 SWAP4 SWAP3 SWAP2 SWAP1 PUSH2 0x87F JUMP JUMPDEST PUSH1 0x40 MLOAD DUP1 SWAP2 SUB SWAP1 LOG1 PUSH1 0x1 PUSH0 DUP1 DUP3 DUP3 SLOAD PUSH2 0x16B SWAP2 SWAP1 PUSH2 0x8FD JUMP JUMPDEST SWAP3 POP POP DUP2 SWAP1 SSTORE POP POP POP POP JUMP JUMPDEST PUSH1 0x1 PUSH1 0x20 MSTORE DUP1 PUSH0 MSTORE PUSH1 0x40 PUSH0 KECCAK256 PUSH0 SWAP2 POP SWAP1 POP DUP1 PUSH0 ADD DUP1 SLOAD PUSH2 0x196 SWAP1 PUSH2 0x5E3 JUMP JUMPDEST DUP1 PUSH1 0x1F ADD PUSH1 0x20 DUP1 SWAP2 DIV MUL PUSH1 0x20 ADD PUSH1 0x40 MLOAD SWAP1 DUP2 ADD PUSH1 0x40 MSTORE DUP1 SWAP3 SWAP2 SWAP1 DUP2 DUP2 MSTORE PUSH1 0x20 ADD DUP3 DUP1 SLOAD PUSH2 0x1C2 SWAP1 PUSH2 0x5E3 JUMP JUMPDEST DUP1 ISZERO PUSH2 0x20D JUMPI DUP1 PUSH1 0x1F LT PUSH2 0x1E4 JUMPI PUSH2 0x100 DUP1 DUP4 SLOAD DIV MUL DUP4 MSTORE SWAP2 PUSH1 0x20 ADD SWAP2 PUSH2 0x20D JUMP JUMPDEST DUP3 ADD SWAP2 SWAP1 PUSH0 MSTORE PUSH1 0x20 PUSH0 KECCAK256 SWAP1 JUMPDEST DUP2 SLOAD DUP2 MSTORE SWAP1 PUSH1 0x1 ADD SWAP1 PUSH1 0x20 ADD DUP1 DUP4 GT PUSH2 0x1F0 JUMPI DUP3 SWAP1 SUB PUSH1 0x1F AND DUP3 ADD SWAP2 JUMPDEST POP POP POP POP POP SWAP1 DUP1 PUSH1 0x1 ADD DUP1 SLOAD PUSH2 0x222 SWAP1 PUSH2 0x5E3 JUMP JUMPDEST DUP1 PUSH1 0x1F ADD PUSH1 0x20 DUP1 SWAP2 DIV MUL PUSH1 0x20 ADD PUSH1 0x40 MLOAD SWAP1 DUP2 ADD PUSH1 0x40 MSTORE DUP1 SWAP3 SWAP2 SWAP1 DUP2 DUP2 MSTORE PUSH1 0x20 ADD DUP3 DUP1 SLOAD PUSH2 0x24E SWAP1 PUSH2 0x5E3 JUMP JUMPDEST DUP1 ISZERO PUSH2 0x299 JUMPI DUP1 PUSH1 0x1F LT PUSH2 0x270 JUMPI PUSH2 0x100 DUP1 DUP4 SLOAD DIV MUL DUP4 MSTORE SWAP2 PUSH1 0x20 ADD SWAP2 PUSH2 0x299 JUMP JUMPDEST DUP3 ADD SWAP2 SWAP1 PUSH0 MSTORE PUSH1 0x20 PUSH0 KECCAK256 SWAP1 JUMPDEST DUP2 SLOAD DUP2 MSTORE SWAP1 PUSH1 0x1 ADD SWAP1 PUSH1 0x20 ADD DUP1 DUP4 GT PUSH2 0x27C JUMPI DUP3 SWAP1 SUB PUSH1 0x1F AND DUP3 ADD SWAP2 JUMPDEST POP POP POP POP POP SWAP1 DUP1 PUSH1 0x2 ADD SLOAD SWAP1 DUP1 PUSH1 0x3 ADD SLOAD SWAP1 DUP1 PUSH1 0x4 ADD SLOAD SWAP1 POP DUP6 JUMP JUMPDEST PUSH0 PUSH1 0x40 MLOAD SWAP1 POP SWAP1 JUMP JUMPDEST PUSH0 DUP1 REVERT JUMPDEST PUSH0 DUP1 REVERT JUMPDEST PUSH0 DUP1 REVERT JUMPDEST PUSH0 DUP1 REVERT JUMPDEST PUSH0 PUSH1 0x1F NOT PUSH1 0x1F DUP4 ADD AND SWAP1 POP SWAP2 SWAP1 POP JUMP JUMPDEST PUSH32 0x4E487B7100000000000000000000000000000000000000000000000000000000 PUSH0 MSTORE PUSH1 0x41 PUSH1 0x4 MSTORE PUSH1 0x24 PUSH0 REVERT JUMPDEST PUSH2 0x314 DUP3 PUSH2 0x2CE JUMP JUMPDEST DUP2 ADD DUP2 DUP2 LT PUSH8 0xFFFFFFFFFFFFFFFF DUP3 GT OR ISZERO PUSH2 0x333 JUMPI PUSH2 0x332 PUSH2 0x2DE JUMP JUMPDEST JUMPDEST DUP1 PUSH1 0x40 MSTORE POP POP POP JUMP JUMPDEST PUSH0 PUSH2 0x345 PUSH2 0x2B5 JUMP JUMPDEST SWAP1 POP PUSH2 0x351 DUP3 DUP3 PUSH2 0x30B JUMP JUMPDEST SWAP2 SWAP1 POP JUMP JUMPDEST PUSH0 PUSH8 0xFFFFFFFFFFFFFFFF DUP3 GT ISZERO PUSH2 0x370 JUMPI PUSH2 0x36F PUSH2 0x2DE JUMP JUMPDEST JUMPDEST PUSH2 0x379 DUP3 PUSH2 0x2CE JUMP JUMPDEST SWAP1 POP PUSH1 0x20 DUP2 ADD SWAP1 POP SWAP2 SWAP1 POP JUMP JUMPDEST DUP3 DUP2 DUP4 CALLDATACOPY PUSH0 DUP4 DUP4 ADD MSTORE POP POP POP JUMP JUMPDEST PUSH0 PUSH2 0x3A6 PUSH2 0x3A1 DUP5 PUSH2 0x356 JUMP JUMPDEST PUSH2 0x33C JUMP JUMPDEST SWAP1 POP DUP3 DUP2 MSTORE PUSH1 0x20 DUP2 ADD DUP5 DUP5 DUP5 ADD GT ISZERO PUSH2 0x3C2 JUMPI PUSH2 0x3C1 PUSH2 0x2CA JUMP JUMPDEST JUMPDEST PUSH2 0x3CD DUP5 DUP3 DUP6 PUSH2 0x386 JUMP JUMPDEST POP SWAP4 SWAP3 POP POP POP JUMP JUMPDEST PUSH0 DUP3 PUSH1 0x1F DUP4 ADD SLT PUSH2 0x3E9 JUMPI PUSH2 0x3E8 PUSH2 0x2C6 JUMP JUMPDEST JUMPDEST DUP2 CALLDATALOAD PUSH2 0x3F9 DUP5 DUP3 PUSH1 0x20 DUP7 ADD PUSH2 0x394 JUMP JUMPDEST SWAP2 POP POP SWAP3 SWAP2 POP POP JUMP JUMPDEST PUSH0 DUP2 SWAP1 POP SWAP2 SWAP1 POP JUMP JUMPDEST PUSH2 0x414 DUP2 PUSH2 0x402 JUMP JUMPDEST DUP2 EQ PUSH2 0x41E JUMPI PUSH0 DUP1 REVERT JUMPDEST POP JUMP JUMPDEST PUSH0 DUP2 CALLDATALOAD SWAP1 POP PUSH2 0x42F DUP2 PUSH2 0x40B JUMP JUMPDEST SWAP3 SWAP2 POP POP JUMP JUMPDEST PUSH0 DUP1 PUSH0 PUSH1 0x60 DUP5 DUP7 SUB SLT ISZERO PUSH2 0x44C JUMPI PUSH2 0x44B PUSH2 0x2BE JUMP JUMPDEST JUMPDEST PUSH0 DUP5 ADD CALLDATALOAD PUSH8 0xFFFFFFFFFFFFFFFF DUP2 GT ISZERO PUSH2 0x469 JUMPI PUSH2 0x468 PUSH2 0x2C2 JUMP JUMPDEST JUMPDEST PUSH2 0x475 DUP7 DUP3 DUP8 ADD PUSH2 0x3D5 JUMP JUMPDEST SWAP4 POP POP PUSH1 0x20 DUP5 ADD CALLDATALOAD PUSH8 0xFFFFFFFFFFFFFFFF DUP2 GT ISZERO PUSH2 0x496 JUMPI PUSH2 0x495 PUSH2 0x2C2 JUMP JUMPDEST JUMPDEST PUSH2 0x4A2 DUP7 DUP3 DUP8 ADD PUSH2 0x3D5 JUMP JUMPDEST SWAP3 POP POP PUSH1 0x40 PUSH2 0x4B3 DUP7 DUP3 DUP8 ADD PUSH2 0x421 JUMP JUMPDEST SWAP2 POP POP SWAP3 POP SWAP3 POP SWAP3 JUMP JUMPDEST PUSH0 PUSH1 0x20 DUP3 DUP5 SUB SLT ISZERO PUSH2 0x4D2 JUMPI PUSH2 0x4D1 PUSH2 0x2BE JUMP JUMPDEST JUMPDEST PUSH0 PUSH2 0x4DF DUP5 DUP3 DUP6 ADD PUSH2 0x421 JUMP JUMPDEST SWAP2 POP POP SWAP3 SWAP2 POP POP JUMP JUMPDEST PUSH0 DUP2 MLOAD SWAP1 POP SWAP2 SWAP1 POP JUMP JUMPDEST PUSH0 DUP3 DUP3 MSTORE PUSH1 0x20 DUP3 ADD SWAP1 POP SWAP3 SWAP2 POP POP JUMP JUMPDEST DUP3 DUP2 DUP4 MCOPY PUSH0 DUP4 DUP4 ADD MSTORE POP POP POP JUMP JUMPDEST PUSH0 PUSH2 0x51A DUP3 PUSH2 0x4E8 JUMP JUMPDEST PUSH2 0x524 DUP2 DUP6 PUSH2 0x4F2 JUMP JUMPDEST SWAP4 POP PUSH2 0x534 DUP2 DUP6 PUSH1 0x20 DUP7 ADD PUSH2 0x502 JUMP JUMPDEST PUSH2 0x53D DUP2 PUSH2 0x2CE JUMP JUMPDEST DUP5 ADD SWAP2 POP POP SWAP3 SWAP2 POP POP JUMP JUMPDEST PUSH2 0x551 DUP2 PUSH2 0x402 JUMP JUMPDEST DUP3 MSTORE POP POP JUMP JUMPDEST PUSH0 PUSH1 0xA0 DUP3 ADD SWAP1 POP DUP2 DUP2 SUB PUSH0 DUP4 ADD MSTORE PUSH2 0x56F DUP2 DUP9 PUSH2 0x510 JUMP JUMPDEST SWAP1 POP DUP2 DUP2 SUB PUSH1 0x20 DUP4 ADD MSTORE PUSH2 0x583 DUP2 DUP8 PUSH2 0x510 JUMP JUMPDEST SWAP1 POP PUSH2 0x592 PUSH1 0x40 DUP4 ADD DUP7 PUSH2 0x548 JUMP JUMPDEST PUSH2 0x59F PUSH1 0x60 DUP4 ADD DUP6 PUSH2 0x548 JUMP JUMPDEST PUSH2 0x5AC PUSH1 0x80 DUP4 ADD DUP5 PUSH2 0x548 JUMP JUMPDEST SWAP7 SWAP6 POP POP POP POP POP POP JUMP JUMPDEST PUSH32 0x4E487B7100000000000000000000000000000000000000000000000000000000 PUSH0 MSTORE PUSH1 0x22 PUSH1 0x4 MSTORE PUSH1 0x24 PUSH0 REVERT JUMPDEST PUSH0 PUSH1 0x2 DUP3 DIV SWAP1 POP PUSH1 0x1 DUP3 AND DUP1 PUSH2 0x5FA JUMPI PUSH1 0x7F DUP3 AND SWAP2 POP JUMPDEST PUSH1 0x20 DUP3 LT DUP2 SUB PUSH2 0x60D JUMPI PUSH2 0x60C PUSH2 0x5B6 JUMP JUMPDEST JUMPDEST POP SWAP2 SWAP1 POP JUMP JUMPDEST PUSH0 DUP2 SWAP1 POP DUP2 PUSH0 MSTORE PUSH1 0x20 PUSH0 KECCAK256 SWAP1 POP SWAP2 SWAP1 POP JUMP JUMPDEST PUSH0 PUSH1 0x20 PUSH1 0x1F DUP4 ADD DIV SWAP1 POP SWAP2 SWAP1 POP JUMP JUMPDEST PUSH0 DUP3 DUP3 SHL SWAP1 POP SWAP3 SWAP2 POP POP JUMP JUMPDEST PUSH0 PUSH1 0x8 DUP4 MUL PUSH2 0x66F PUSH32 0xFFFFFFFFFFFFFFFFFFFFFFFFFFFFFFFFFFFFFFFFFFFFFFFFFFFFFFFFFFFFFFFF DUP3 PUSH2 0x634 JUMP JUMPDEST PUSH2 0x679 DUP7 DUP4 PUSH2 0x634 JUMP JUMPDEST SWAP6 POP DUP1 NOT DUP5 AND SWAP4 POP DUP1 DUP7 AND DUP5 OR SWAP3 POP POP POP SWAP4 SWAP3 POP POP POP JUMP JUMPDEST PUSH0 DUP2 SWAP1 POP SWAP2 SWAP1 POP JUMP JUMPDEST PUSH0 PUSH2 0x6B4 PUSH2 0x6AF PUSH2 0x6AA DUP5 PUSH2 0x402 JUMP JUMPDEST PUSH2 0x691 JUMP JUMPDEST PUSH2 0x402 JUMP JUMPDEST SWAP1 POP SWAP2 SWAP1 POP JUMP JUMPDEST PUSH0 DUP2 SWAP1 POP SWAP2 SWAP1 POP JUMP JUMPDEST PUSH2 0x6CD DUP4 PUSH2 0x69A JUMP JUMPDEST PUSH2 0x6E1 PUSH2 0x6D9 DUP3 PUSH2 0x6BB JUMP JUMPDEST DUP5 DUP5 SLOAD PUSH2 0x640 JUMP JUMPDEST DUP3 SSTORE POP POP POP POP JUMP JUMPDEST PUSH0 SWAP1 JUMP JUMPDEST PUSH2 0x6F5 PUSH2 0x6E9 JUMP JUMPDEST PUSH2 0x700 DUP2 DUP5 DUP5 PUSH2 0x6C4 JUMP JUMPDEST POP POP POP JUMP JUMPDEST JUMPDEST DUP2 DUP2 LT ISZERO PUSH2 0x723 JUMPI PUSH2 0x718 PUSH0 DUP3 PUSH2 0x6ED JUMP JUMPDEST PUSH1 0x1 DUP2 ADD SWAP1 POP PUSH2 0x706 JUMP JUMPDEST POP POP JUMP JUMPDEST PUSH1 0x1F DUP3 GT ISZERO PUSH2 0x768 JUMPI PUSH2 0x739 DUP2 PUSH2 0x613 JUMP JUMPDEST PUSH2 0x742 DUP5 PUSH2 0x625 JUMP JUMPDEST DUP2 ADD PUSH1 0x20 DUP6 LT ISZERO PUSH2 0x751 JUMPI DUP2 SWAP1 POP JUMPDEST PUSH2 0x765 PUSH2 0x75D DUP6 PUSH2 0x625 JUMP JUMPDEST DUP4 ADD DUP3 PUSH2 0x705 JUMP JUMPDEST POP POP JUMPDEST POP POP POP JUMP JUMPDEST PUSH0 DUP3 DUP3 SHR SWAP1 POP SWAP3 SWAP2 POP POP JUMP JUMPDEST PUSH0 PUSH2 0x788 PUSH0 NOT DUP5 PUSH1 0x8 MUL PUSH2 0x76D JUMP JUMPDEST NOT DUP1 DUP4 AND SWAP2 POP POP SWAP3 SWAP2 POP POP JUMP JUMPDEST PUSH0 PUSH2 0x7A0 DUP4 DUP4 PUSH2 0x779 JUMP JUMPDEST SWAP2 POP DUP3 PUSH1 0x2 MUL DUP3 OR SWAP1 POP SWAP3 SWAP2 POP POP JUMP JUMPDEST PUSH2 0x7B9 DUP3 PUSH2 0x4E8 JUMP JUMPDEST PUSH8 0xFFFFFFFFFFFFFFFF DUP2 GT ISZERO PUSH2 0x7D2 JUMPI PUSH2 0x7D1 PUSH2 0x2DE JUMP JUMPDEST JUMPDEST PUSH2 0x7DC DUP3 SLOAD PUSH2 0x5E3 JUMP JUMPDEST PUSH2 0x7E7 DUP3 DUP3 DUP6 PUSH2 0x727 JUMP JUMPDEST PUSH0 PUSH1 0x20 SWAP1 POP PUSH1 0x1F DUP4 GT PUSH1 0x1 DUP2 EQ PUSH2 0x818 JUMPI PUSH0 DUP5 ISZERO PUSH2 0x806 JUMPI DUP3 DUP8 ADD MLOAD SWAP1 POP JUMPDEST PUSH2 0x810 DUP6 DUP3 PUSH2 0x795 JUMP JUMPDEST DUP7 SSTORE POP PUSH2 0x877 JUMP JUMPDEST PUSH1 0x1F NOT DUP5 AND PUSH2 0x826 DUP7 PUSH2 0x613 JUMP JUMPDEST PUSH0 JUMPDEST DUP3 DUP2 LT ISZERO PUSH2 0x84D JUMPI DUP5 DUP10 ADD MLOAD DUP3 SSTORE PUSH1 0x1 DUP3 ADD SWAP2 POP PUSH1 0x20 DUP6 ADD SWAP5 POP PUSH1 0x20 DUP2 ADD SWAP1 POP PUSH2 0x828 JUMP JUMPDEST DUP7 DUP4 LT ISZERO PUSH2 0x86A JUMPI DUP5 DUP10 ADD MLOAD PUSH2 0x866 PUSH1 0x1F DUP10 AND DUP3 PUSH2 0x779 JUMP JUMPDEST DUP4 SSTORE POP JUMPDEST PUSH1 0x1 PUSH1 0x2 DUP9 MUL ADD DUP9 SSTORE POP POP POP JUMPDEST POP POP POP POP POP POP JUMP JUMPDEST PUSH0 PUSH1 0x80 DUP3 ADD SWAP1 POP DUP2 DUP2 SUB PUSH0 DUP4 ADD MSTORE PUSH2 0x897 DUP2 DUP8 PUSH2 0x510 JUMP JUMPDEST SWAP1 POP PUSH2 0x8A6 PUSH1 0x20 DUP4 ADD DUP7 PUSH2 0x548 JUMP JUMPDEST PUSH2 0x8B3 PUSH1 0x40 DUP4 ADD DUP6 PUSH2 0x548 JUMP JUMPDEST DUP2 DUP2 SUB PUSH1 0x60 DUP4 ADD MSTORE PUSH2 0x8C5 DUP2 DUP5 PUSH2 0x510 JUMP JUMPDEST SWAP1 POP SWAP6 SWAP5 POP POP POP POP POP JUMP JUMPDEST PUSH32 0x4E487B7100000000000000000000000000000000000000000000000000000000 PUSH0 MSTORE PUSH1 0x11 PUSH1 0x4 MSTORE PUSH1 0x24 PUSH0 REVERT JUMPDEST PUSH0 PUSH2 0x907 DUP3 PUSH2 0x402 JUMP JUMPDEST SWAP2 POP PUSH2 0x912 DUP4 PUSH2 0x402 JUMP JUMPDEST SWAP3 POP DUP3 DUP3 ADD SWAP1 POP DUP1 DUP3 GT ISZERO PUSH2 0x92A JUMPI PUSH2 0x929 PUSH2 0x8D0 JUMP JUMPDEST JUMPDEST SWAP3 SWAP2 POP POP JUMP INVALID LOG2 PUSH5 0x6970667358 0x22 SLT KECCAK256 PUSH32 0x2B4F27B5E45D0DDC3BC1E5C887DAFF79FB0DDCF360E725B59E0ADECC08087764 PUSH20 0x6F6C634300081A00330000000000000000000000 "
				},
				"gasEstimates": {
					"creation": {
						"codeDepositCost": "481200",
						"executionCost": "22621",
						"totalCost": "503821"
					},
					"external": {
						"addStudent(string,string,uint256)": "infinite",
						"studentDatabase(uint256)": "infinite"
					}
				},
				"methodIdentifiers": {
					"addStudent(string,string,uint256)": "9cc8f139",
					"studentDatabase(uint256)": "b588d722"
				}
			},
			"storageLayout": {
				"storage": [
					{
						"astId": 15,
						"contract": "Source_Code/Events.sol:prachain",
						"label": "rollNumber",
						"offset": 0,
						"slot": "0",
						"type": "t_uint256"
					},
					{
						"astId": 20,
						"contract": "Source_Code/Events.sol:prachain",
						"label": "studentDatabase",
						"offset": 0,
						"slot": "1",
						"type": "t_mapping(t_uint256,t_struct(student)12_storage)"
					}
				],
				"types": {
					"t_mapping(t_uint256,t_struct(student)12_storage)": {
						"encoding": "mapping",
						"key": "t_uint256",
						"label": "mapping(uint256 => struct prachain.student)",
						"numberOfBytes": "32",
						"value": "t_struct(student)12_storage"
					},
					"t_string_storage": {
						"encoding": "bytes",
						"label": "string",
						"numberOfBytes": "32"
					},
					"t_struct(student)12_storage": {
						"encoding": "inplace",
						"label": "struct prachain.student",
						"members": [
							{
								"astId": 3,
								"contract": "Source_Code/Events.sol:prachain",
								"label": "name",
								"offset": 0,
								"slot": "0",
								"type": "t_string_storage"
							},
							{
								"astId": 5,
								"contract": "Source_Code/Events.sol:prachain",
								"label": "emailId",
								"offset": 0,
								"slot": "1",
								"type": "t_string_storage"
							},
							{
								"astId": 7,
								"contract": "Source_Code/Events.sol:prachain",
								"label": "contactNumber",
								"offset": 0,
								"slot": "2",
								"type": "t_uint256"
							},
							{
								"astId": 9,
								"contract": "Source_Code/Events.sol:prachain",
								"label": "rollNumber",
								"offset": 0,
								"slot": "3",
								"type": "t_uint256"
							},
							{
								"astId": 11,
								"contract": "Source_Code/Events.sol:prachain",
								"label": "timestamp",
								"offset": 0,
								"slot": "4",
								"type": "t_uint256"
							}
						],
						"numberOfBytes": "160"
					},
					"t_uint256": {
						"encoding": "inplace",
						"label": "uint256",
						"numberOfBytes": "32"
					}
				}
			},
			"userdoc": {
				"kind": "user",
				"methods": {},
				"version": 1
			}
		}
	}
}