{
	"data": {
		"bytecode": {
			"linkReferences": {},
			"object": "60806040525f6001553480156012575f80fd5b50610a1f806100205f395ff3fe608060405234801561000f575f80fd5b5060043610610060575f3560e01c806306ead22e146100645780631003e2d21461009457806322fcefbe146100b05780634e303c60146100ce578063e1869a9f146100ea578063e308ae72146100f4575b5f80fd5b61007e60048036038101906100799190610347565b610110565b60405161008b91906103e2565b60405180910390f35b6100ae60048036038101906100a99190610347565b6101aa565b005b6100b8610218565b6040516100c59190610411565b60405180910390f35b6100e860048036038101906100e39190610638565b61021e565b005b6100f2610278565b005b61010e60048036038101906101099190610347565b6102a5565b005b5f602052805f5260405f205f91509050805461012b906106ac565b80601f0160208091040260200160405190810160405280929190818152602001828054610157906106ac565b80156101a25780601f10610179576101008083540402835291602001916101a2565b820191905f5260205f20905b81548152906001019060200180831161018557829003601f168201915b505050505081565b5f5b81811015610214576040518060400160405280600581526020017f4c6f6f70730000000000000000000000000000000000000000000000000000008152505f808381526020019081526020015f2090816102069190610879565b5080806001019150506101ac565b5050565b60015481565b5f5b81518110156102745781818151811061023c5761023b610948565b5b60200260200101515f808381526020019081526020015f2090816102609190610879565b50808061026c906109a2565b915050610220565b5050565b5f5b60058110156102a25780600181905550600460015403156102a257808060010191505061027a565b50565b5b6040518060400160405280600a81526020017f426c6f636b747261696e000000000000000000000000000000000000000000008152505f808081526020019081526020015f2090816102f89190610879565b505f81106102a65750565b5f604051905090565b5f80fd5b5f80fd5b5f819050919050565b61032681610314565b8114610330575f80fd5b50565b5f813590506103418161031d565b92915050565b5f6020828403121561035c5761035b61030c565b5b5f61036984828501610333565b91505092915050565b5f81519050919050565b5f82825260208201905092915050565b8281835e5f83830152505050565b5f601f19601f8301169050919050565b5f6103b482610372565b6103be818561037c565b93506103ce81856020860161038c565b6103d78161039a565b840191505092915050565b5f6020820190508181035f8301526103fa81846103aa565b905092915050565b61040b81610314565b82525050565b5f6020820190506104245f830184610402565b92915050565b5f80fd5b7f4e487b71000000000000000000000000000000000000000000000000000000005f52604160045260245ffd5b6104648261039a565b810181811067ffffffffffffffff821117156104835761048261042e565b5b80604052505050565b5f610495610303565b90506104a1828261045b565b919050565b5f67ffffffffffffffff8211156104c0576104bf61042e565b5b602082029050602081019050919050565b5f80fd5b5f80fd5b5f67ffffffffffffffff8211156104f3576104f261042e565b5b6104fc8261039a565b9050602081019050919050565b828183375f83830152505050565b5f610529610524846104d9565b61048c565b905082815260208101848484011115610545576105446104d5565b5b610550848285610509565b509392505050565b5f82601f83011261056c5761056b61042a565b5b813561057c848260208601610517565b91505092915050565b5f610597610592846104a6565b61048c565b905080838252602082019050602084028301858111156105ba576105b96104d1565b5b835b8181101561060157803567ffffffffffffffff8111156105df576105de61042a565b5b8086016105ec8982610558565b855260208501945050506020810190506105bc565b5050509392505050565b5f82601f83011261061f5761061e61042a565b5b813561062f848260208601610585565b91505092915050565b5f6020828403121561064d5761064c61030c565b5b5f82013567ffffffffffffffff81111561066a57610669610310565b5b6106768482850161060b565b91505092915050565b7f4e487b71000000000000000000000000000000000000000000000000000000005f52602260045260245ffd5b5f60028204905060018216806106c357607f821691505b6020821081036106d6576106d561067f565b5b50919050565b5f819050815f5260205f209050919050565b5f6020601f8301049050919050565b5f82821b905092915050565b5f600883026107387fffffffffffffffffffffffffffffffffffffffffffffffffffffffffffffffff826106fd565b61074286836106fd565b95508019841693508086168417925050509392505050565b5f819050919050565b5f61077d61077861077384610314565b61075a565b610314565b9050919050565b5f819050919050565b61079683610763565b6107aa6107a282610784565b848454610709565b825550505050565b5f90565b6107be6107b2565b6107c981848461078d565b505050565b5b818110156107ec576107e15f826107b6565b6001810190506107cf565b5050565b601f82111561083157610802816106dc565b61080b846106ee565b8101602085101561081a578190505b61082e610826856106ee565b8301826107ce565b50505b505050565b5f82821c905092915050565b5f6108515f1984600802610836565b1980831691505092915050565b5f6108698383610842565b9150826002028217905092915050565b61088282610372565b67ffffffffffffffff81111561089b5761089a61042e565b5b6108a582546106ac565b6108b08282856107f0565b5f60209050601f8311600181146108e1575f84156108cf578287015190505b6108d9858261085e565b865550610940565b601f1984166108ef866106dc565b5f5b82811015610916578489015182556001820191506020850194506020810190506108f1565b86831015610933578489015161092f601f891682610842565b8355505b6001600288020188555050505b505050505050565b7f4e487b71000000000000000000000000000000000000000000000000000000005f52603260045260245ffd5b7f4e487b71000000000000000000000000000000000000000000000000000000005f52601160045260245ffd5b5f6109ac82610314565b91507fffffffffffffffffffffffffffffffffffffffffffffffffffffffffffffffff82036109de576109dd610975565b5b60018201905091905056fea2646970667358221220691dec4ba563dcdf9bf275c5c7843afaaed6d65ff301c752c361d6f6b13e399564736f6c634300081a0033",
			"opcodes": "PUSH1 0x80 PUSH1 0x40 MSTORE PUSH0 PUSH1 0x1 SSTORE CALLVALUE DUP1 ISZERO PUSH1 0x12 JUMPI PUSH0 DUP1 REVERT JUMPDEST POP PUSH2 0xA1F DUP1 PUSH2 0x20 PUSH0 CODECOPY PUSH0 RETURN INVALID PUSH1 0x80 PUSH1 0x40 MSTORE CALLVALUE DUP1 ISZERO PUSH2 0xF JUMPI PUSH0 DUP1 REVERT JUMPDEST POP PUSH1 0x4 CALLDATASIZE LT PUSH2 0x60 JUMPI PUSH0 CALLDATALOAD PUSH1 0xE0 SHR DUP1 PUSH4 0x6EAD22E EQ PUSH2 0x64 JUMPI DUP1 PUSH4 0x1003E2D2 EQ PUSH2 0x94 JUMPI DUP1 PUSH4 0x22FCEFBE EQ PUSH2 0xB0 JUMPI DUP1 PUSH4 0x4E303C60 EQ PUSH2 0xCE JUMPI DUP1 PUSH4 0xE1869A9F EQ PUSH2 0xEA JUMPI DUP1 PUSH4 0xE308AE72 EQ PUSH2 0xF4 JUMPI JUMPDEST PUSH0 DUP1 REVERT JUMPDEST PUSH2 0x7E PUSH1 0x4 DUP1 CALLDATASIZE SUB DUP2 ADD SWAP1 PUSH2 0x79 SWAP2 SWAP1 PUSH2 0x347 JUMP JUMPDEST PUSH2 0x110 JUMP JUMPDEST PUSH1 0x40 MLOAD PUSH2 0x8B SWAP2 SWAP1 PUSH2 0x3E2 JUMP JUMPDEST PUSH1 0x40 MLOAD DUP1 SWAP2 SUB SWAP1 RETURN JUMPDEST PUSH2 0xAE PUSH1 0x4 DUP1 CALLDATASIZE SUB DUP2 ADD SWAP1 PUSH2 0xA9 SWAP2 SWAP1 PUSH2 0x347 JUMP JUMPDEST PUSH2 0x1AA JUMP JUMPDEST STOP JUMPDEST PUSH2 0xB8 PUSH2 0x218 JUMP JUMPDEST PUSH1 0x40 MLOAD PUSH2 0xC5 SWAP2 SWAP1 PUSH2 0x411 JUMP JUMPDEST PUSH1 0x40 MLOAD DUP1 SWAP2 SUB SWAP1 RETURN JUMPDEST PUSH2 0xE8 PUSH1 0x4 DUP1 CALLDATASIZE SUB DUP2 ADD SWAP1 PUSH2 0xE3 SWAP2 SWAP1 PUSH2 0x638 JUMP JUMPDEST PUSH2 0x21E JUMP JUMPDEST STOP JUMPDEST PUSH2 0xF2 PUSH2 0x278 JUMP JUMPDEST STOP JUMPDEST PUSH2 0x10E PUSH1 0x4 DUP1 CALLDATASIZE SUB DUP2 ADD SWAP1 PUSH2 0x109 SWAP2 SWAP1 PUSH2 0x347 JUMP JUMPDEST PUSH2 0x2A5 JUMP JUMPDEST STOP JUMPDEST PUSH0 PUSH1 0x20 MSTORE DUP1 PUSH0 MSTORE PUSH1 0x40 PUSH0 KECCAK256 PUSH0 SWAP2 POP SWAP1 POP DUP1 SLOAD PUSH2 0x12B SWAP1 PUSH2 0x6AC JUMP JUMPDEST DUP1 PUSH1 0x1F ADD PUSH1 0x20 DUP1 SWAP2 DIV MUL PUSH1 0x20 ADD PUSH1 0x40 MLOAD SWAP1 DUP2 ADD PUSH1 0x40 MSTORE DUP1 SWAP3 SWAP2 SWAP1 DUP2 DUP2 MSTORE PUSH1 0x20 ADD DUP3 DUP1 SLOAD PUSH2 0x157 SWAP1 PUSH2 0x6AC JUMP JUMPDEST DUP1 ISZERO PUSH2 0x1A2 JUMPI DUP1 PUSH1 0x1F LT PUSH2 0x179 JUMPI PUSH2 0x100 DUP1 DUP4 SLOAD DIV MUL DUP4 MSTORE SWAP2 PUSH1 0x20 ADD SWAP2 PUSH2 0x1A2 JUMP JUMPDEST DUP3 ADD SWAP2 SWAP1 PUSH0 MSTORE PUSH1 0x20 PUSH0 KECCAK256 SWAP1 JUMPDEST DUP2 SLOAD DUP2 MSTORE SWAP1 PUSH1 0x1 ADD SWAP1 PUSH1 0x20 ADD DUP1 DUP4 GT PUSH2 0x185 JUMPI DUP3 SWAP1 SUB PUSH1 0x1F AND DUP3 ADD SWAP2 JUMPDEST POP POP POP POP POP DUP2 JUMP JUMPDEST PUSH0 JUMPDEST DUP2 DUP2 LT ISZERO PUSH2 0x214 JUMPI PUSH1 0x40 MLOAD DUP1 PUSH1 0x40 ADD PUSH1 0x40 MSTORE DUP1 PUSH1 0x5 DUP2 MSTORE PUSH1 0x20 ADD PUSH32 0x4C6F6F7073000000000000000000000000000000000000000000000000000000 DUP2 MSTORE POP PUSH0 DUP1 DUP4 DUP2 MSTORE PUSH1 0x20 ADD SWAP1 DUP2 MSTORE PUSH1 0x20 ADD PUSH0 KECCAK256 SWAP1 DUP2 PUSH2 0x206 SWAP2 SWAP1 PUSH2 0x879 JUMP JUMPDEST POP DUP1 DUP1 PUSH1 0x1 ADD SWAP2 POP POP PUSH2 0x1AC JUMP JUMPDEST POP POP JUMP JUMPDEST PUSH1 0x1 SLOAD DUP2 JUMP JUMPDEST PUSH0 JUMPDEST DUP2 MLOAD DUP2 LT ISZERO PUSH2 0x274 JUMPI DUP2 DUP2 DUP2 MLOAD DUP2 LT PUSH2 0x23C JUMPI PUSH2 0x23B PUSH2 0x948 JUMP JUMPDEST JUMPDEST PUSH1 0x20 MUL PUSH1 0x20 ADD ADD MLOAD PUSH0 DUP1 DUP4 DUP2 MSTORE PUSH1 0x20 ADD SWAP1 DUP2 MSTORE PUSH1 0x20 ADD PUSH0 KECCAK256 SWAP1 DUP2 PUSH2 0x260 SWAP2 SWAP1 PUSH2 0x879 JUMP JUMPDEST POP DUP1 DUP1 PUSH2 0x26C SWAP1 PUSH2 0x9A2 JUMP JUMPDEST SWAP2 POP POP PUSH2 0x220 JUMP JUMPDEST POP POP JUMP JUMPDEST PUSH0 JUMPDEST PUSH1 0x5 DUP2 LT ISZERO PUSH2 0x2A2 JUMPI DUP1 PUSH1 0x1 DUP2 SWAP1 SSTORE POP PUSH1 0x4 PUSH1 0x1 SLOAD SUB ISZERO PUSH2 0x2A2 JUMPI DUP1 DUP1 PUSH1 0x1 ADD SWAP2 POP POP PUSH2 0x27A JUMP JUMPDEST POP JUMP JUMPDEST JUMPDEST PUSH1 0x40 MLOAD DUP1 PUSH1 0x40 ADD PUSH1 0x40 MSTORE DUP1 PUSH1 0xA DUP2 MSTORE PUSH1 0x20 ADD PUSH32 0x426C6F636B747261696E00000000000000000000000000000000000000000000 DUP2 MSTORE POP PUSH0 DUP1 DUP1 DUP2 MSTORE PUSH1 0x20 ADD SWAP1 DUP2 MSTORE PUSH1 0x20 ADD PUSH0 KECCAK256 SWAP1 DUP2 PUSH2 0x2F8 SWAP2 SWAP1 PUSH2 0x879 JUMP JUMPDEST POP PUSH0 DUP2 LT PUSH2 0x2A6 JUMPI POP JUMP JUMPDEST PUSH0 PUSH1 0x40 MLOAD SWAP1 POP SWAP1 JUMP JUMPDEST PUSH0 DUP1 REVERT JUMPDEST PUSH0 DUP1 REVERT JUMPDEST PUSH0 DUP2 SWAP1 POP SWAP2 SWAP1 POP JUMP JUMPDEST PUSH2 0x326 DUP2 PUSH2 0x314 JUMP JUMPDEST DUP2 EQ PUSH2 0x330 JUMPI PUSH0 DUP1 REVERT JUMPDEST POP JUMP JUMPDEST PUSH0 DUP2 CALLDATALOAD SWAP1 POP PUSH2 0x341 DUP2 PUSH2 0x31D JUMP JUMPDEST SWAP3 SWAP2 POP POP JUMP JUMPDEST PUSH0 PUSH1 0x20 DUP3 DUP5 SUB SLT ISZERO PUSH2 0x35C JUMPI PUSH2 0x35B PUSH2 0x30C JUMP JUMPDEST JUMPDEST PUSH0 PUSH2 0x369 DUP5 DUP3 DUP6 ADD PUSH2 0x333 JUMP JUMPDEST SWAP2 POP POP SWAP3 SWAP2 POP POP JUMP JUMPDEST PUSH0 DUP2 MLOAD SWAP1 POP SWAP2 SWAP1 POP JUMP JUMPDEST PUSH0 DUP3 DUP3 MSTORE PUSH1 0x20 DUP3 ADD SWAP1 POP SWAP3 SWAP2 POP POP JUMP JUMPDEST DUP3 DUP2 DUP4 MCOPY PUSH0 DUP4 DUP4 ADD MSTORE POP POP POP JUMP JUMPDEST PUSH0 PUSH1 0x1F NOT PUSH1 0x1F DUP4 ADD AND SWAP1 POP SWAP2 SWAP1 POP JUMP JUMPDEST PUSH0 PUSH2 0x3B4 DUP3 PUSH2 0x372 JUMP JUMPDEST PUSH2 0x3BE DUP2 DUP6 PUSH2 0x37C JUMP JUMPDEST SWAP4 POP PUSH2 0x3CE DUP2 DUP6 PUSH1 0x20 DUP7 ADD PUSH2 0x38C JUMP JUMPDEST PUSH2 0x3D7 DUP2 PUSH2 0x39A JUMP JUMPDEST DUP5 ADD SWAP2 POP POP SWAP3 SWAP2 POP POP JUMP JUMPDEST PUSH0 PUSH1 0x20 DUP3 ADD SWAP1 POP DUP2 DUP2 SUB PUSH0 DUP4 ADD MSTORE PUSH2 0x3FA DUP2 DUP5 PUSH2 0x3AA JUMP JUMPDEST SWAP1 POP SWAP3 SWAP2 POP POP JUMP JUMPDEST PUSH2 0x40B DUP2 PUSH2 0x314 JUMP JUMPDEST DUP3 MSTORE POP POP JUMP JUMPDEST PUSH0 PUSH1 0x20 DUP3 ADD SWAP1 POP PUSH2 0x424 PUSH0 DUP4 ADD DUP5 PUSH2 0x402 JUMP JUMPDEST SWAP3 SWAP2 POP POP JUMP JUMPDEST PUSH0 DUP1 REVERT JUMPDEST PUSH32 0x4E487B7100000000000000000000000000000000000000000000000000000000 PUSH0 MSTORE PUSH1 0x41 PUSH1 0x4 MSTORE PUSH1 0x24 PUSH0 REVERT JUMPDEST PUSH2 0x464 DUP3 PUSH2 0x39A JUMP JUMPDEST DUP2 ADD DUP2 DUP2 LT PUSH8 0xFFFFFFFFFFFFFFFF DUP3 GT OR ISZERO PUSH2 0x483 JUMPI PUSH2 0x482 PUSH2 0x42E JUMP JUMPDEST JUMPDEST DUP1 PUSH1 0x40 MSTORE POP POP POP JUMP JUMPDEST PUSH0 PUSH2 0x495 PUSH2 0x303 JUMP JUMPDEST SWAP1 POP PUSH2 0x4A1 DUP3 DUP3 PUSH2 0x45B JUMP JUMPDEST SWAP2 SWAP1 POP JUMP JUMPDEST PUSH0 PUSH8 0xFFFFFFFFFFFFFFFF DUP3 GT ISZERO PUSH2 0x4C0 JUMPI PUSH2 0x4BF PUSH2 0x42E JUMP JUMPDEST JUMPDEST PUSH1 0x20 DUP3 MUL SWAP1 POP PUSH1 0x20 DUP2 ADD SWAP1 POP SWAP2 SWAP1 POP JUMP JUMPDEST PUSH0 DUP1 REVERT JUMPDEST PUSH0 DUP1 REVERT JUMPDEST PUSH0 PUSH8 0xFFFFFFFFFFFFFFFF DUP3 GT ISZERO PUSH2 0x4F3 JUMPI PUSH2 0x4F2 PUSH2 0x42E JUMP JUMPDEST JUMPDEST PUSH2 0x4FC DUP3 PUSH2 0x39A JUMP JUMPDEST SWAP1 POP PUSH1 0x20 DUP2 ADD SWAP1 POP SWAP2 SWAP1 POP JUMP JUMPDEST DUP3 DUP2 DUP4 CALLDATACOPY PUSH0 DUP4 DUP4 ADD MSTORE POP POP POP JUMP JUMPDEST PUSH0 PUSH2 0x529 PUSH2 0x524 DUP5 PUSH2 0x4D9 JUMP JUMPDEST PUSH2 0x48C JUMP JUMPDEST SWAP1 POP DUP3 DUP2 MSTORE PUSH1 0x20 DUP2 ADD DUP5 DUP5 DUP5 ADD GT ISZERO PUSH2 0x545 JUMPI PUSH2 0x544 PUSH2 0x4D5 JUMP JUMPDEST JUMPDEST PUSH2 0x550 DUP5 DUP3 DUP6 PUSH2 0x509 JUMP JUMPDEST POP SWAP4 SWAP3 POP POP POP JUMP JUMPDEST PUSH0 DUP3 PUSH1 0x1F DUP4 ADD SLT PUSH2 0x56C JUMPI PUSH2 0x56B PUSH2 0x42A JUMP JUMPDEST JUMPDEST DUP2 CALLDATALOAD PUSH2 0x57C DUP5 DUP3 PUSH1 0x20 DUP7 ADD PUSH2 0x517 JUMP JUMPDEST SWAP2 POP POP SWAP3 SWAP2 POP POP JUMP JUMPDEST PUSH0 PUSH2 0x597 PUSH2 0x592 DUP5 PUSH2 0x4A6 JUMP JUMPDEST PUSH2 0x48C JUMP JUMPDEST SWAP1 POP DUP1 DUP4 DUP3 MSTORE PUSH1 0x20 DUP3 ADD SWAP1 POP PUSH1 0x20 DUP5 MUL DUP4 ADD DUP6 DUP2 GT ISZERO PUSH2 0x5BA JUMPI PUSH2 0x5B9 PUSH2 0x4D1 JUMP JUMPDEST JUMPDEST DUP4 JUMPDEST DUP2 DUP2 LT ISZERO PUSH2 0x601 JUMPI DUP1 CALLDATALOAD PUSH8 0xFFFFFFFFFFFFFFFF DUP2 GT ISZERO PUSH2 0x5DF JUMPI PUSH2 0x5DE PUSH2 0x42A JUMP JUMPDEST JUMPDEST DUP1 DUP7 ADD PUSH2 0x5EC DUP10 DUP3 PUSH2 0x558 JUMP JUMPDEST DUP6 MSTORE PUSH1 0x20 DUP6 ADD SWAP5 POP POP POP PUSH1 0x20 DUP2 ADD SWAP1 POP PUSH2 0x5BC JUMP JUMPDEST POP POP POP SWAP4 SWAP3 POP POP POP JUMP JUMPDEST PUSH0 DUP3 PUSH1 0x1F DUP4 ADD SLT PUSH2 0x61F JUMPI PUSH2 0x61E PUSH2 0x42A JUMP JUMPDEST JUMPDEST DUP2 CALLDATALOAD PUSH2 0x62F DUP5 DUP3 PUSH1 0x20 DUP7 ADD PUSH2 0x585 JUMP JUMPDEST SWAP2 POP POP SWAP3 SWAP2 POP POP JUMP JUMPDEST PUSH0 PUSH1 0x20 DUP3 DUP5 SUB SLT ISZERO PUSH2 0x64D JUMPI PUSH2 0x64C PUSH2 0x30C JUMP JUMPDEST JUMPDEST PUSH0 DUP3 ADD CALLDATALOAD PUSH8 0xFFFFFFFFFFFFFFFF DUP2 GT ISZERO PUSH2 0x66A JUMPI PUSH2 0x669 PUSH2 0x310 JUMP JUMPDEST JUMPDEST PUSH2 0x676 DUP5 DUP3 DUP6 ADD PUSH2 0x60B JUMP JUMPDEST SWAP2 POP POP SWAP3 SWAP2 POP POP JUMP JUMPDEST PUSH32 0x4E487B7100000000000000000000000000000000000000000000000000000000 PUSH0 MSTORE PUSH1 0x22 PUSH1 0x4 MSTORE PUSH1 0x24 PUSH0 REVERT JUMPDEST PUSH0 PUSH1 0x2 DUP3 DIV SWAP1 POP PUSH1 0x1 DUP3 AND DUP1 PUSH2 0x6C3 JUMPI PUSH1 0x7F DUP3 AND SWAP2 POP JUMPDEST PUSH1 0x20 DUP3 LT DUP2 SUB PUSH2 0x6D6 JUMPI PUSH2 0x6D5 PUSH2 0x67F JUMP JUMPDEST JUMPDEST POP SWAP2 SWAP1 POP JUMP JUMPDEST PUSH0 DUP2 SWAP1 POP DUP2 PUSH0 MSTORE PUSH1 0x20 PUSH0 KECCAK256 SWAP1 POP SWAP2 SWAP1 POP JUMP JUMPDEST PUSH0 PUSH1 0x20 PUSH1 0x1F DUP4 ADD DIV SWAP1 POP SWAP2 SWAP1 POP JUMP JUMPDEST PUSH0 DUP3 DUP3 SHL SWAP1 POP SWAP3 SWAP2 POP POP JUMP JUMPDEST PUSH0 PUSH1 0x8 DUP4 MUL PUSH2 0x738 PUSH32 0xFFFFFFFFFFFFFFFFFFFFFFFFFFFFFFFFFFFFFFFFFFFFFFFFFFFFFFFFFFFFFFFF DUP3 PUSH2 0x6FD JUMP JUMPDEST PUSH2 0x742 DUP7 DUP4 PUSH2 0x6FD JUMP JUMPDEST SWAP6 POP DUP1 NOT DUP5 AND SWAP4 POP DUP1 DUP7 AND DUP5 OR SWAP3 POP POP POP SWAP4 SWAP3 POP POP POP JUMP JUMPDEST PUSH0 DUP2 SWAP1 POP SWAP2 SWAP1 POP JUMP JUMPDEST PUSH0 PUSH2 0x77D PUSH2 0x778 PUSH2 0x773 DUP5 PUSH2 0x314 JUMP JUMPDEST PUSH2 0x75A JUMP JUMPDEST PUSH2 0x314 JUMP JUMPDEST SWAP1 POP SWAP2 SWAP1 POP JUMP JUMPDEST PUSH0 DUP2 SWAP1 POP SWAP2 SWAP1 POP JUMP JUMPDEST PUSH2 0x796 DUP4 PUSH2 0x763 JUMP JUMPDEST PUSH2 0x7AA PUSH2 0x7A2 DUP3 PUSH2 0x784 JUMP JUMPDEST DUP5 DUP5 SLOAD PUSH2 0x709 JUMP JUMPDEST DUP3 SSTORE POP POP POP POP JUMP JUMPDEST PUSH0 SWAP1 JUMP JUMPDEST PUSH2 0x7BE PUSH2 0x7B2 JUMP JUMPDEST PUSH2 0x7C9 DUP2 DUP5 DUP5 PUSH2 0x78D JUMP JUMPDEST POP POP POP JUMP JUMPDEST JUMPDEST DUP2 DUP2 LT ISZERO PUSH2 0x7EC JUMPI PUSH2 0x7E1 PUSH0 DUP3 PUSH2 0x7B6 JUMP JUMPDEST PUSH1 0x1 DUP2 ADD SWAP1 POP PUSH2 0x7CF JUMP JUMPDEST POP POP JUMP JUMPDEST PUSH1 0x1F DUP3 GT ISZERO PUSH2 0x831 JUMPI PUSH2 0x802 DUP2 PUSH2 0x6DC JUMP JUMPDEST PUSH2 0x80B DUP5 PUSH2 0x6EE JUMP JUMPDEST DUP2 ADD PUSH1 0x20 DUP6 LT ISZERO PUSH2 0x81A JUMPI DUP2 SWAP1 POP JUMPDEST PUSH2 0x82E PUSH2 0x826 DUP6 PUSH2 0x6EE JUMP JUMPDEST DUP4 ADD DUP3 PUSH2 0x7CE JUMP JUMPDEST POP POP JUMPDEST POP POP POP JUMP JUMPDEST PUSH0 DUP3 DUP3 SHR SWAP1 POP SWAP3 SWAP2 POP POP JUMP JUMPDEST PUSH0 PUSH2 0x851 PUSH0 NOT DUP5 PUSH1 0x8 MUL PUSH2 0x836 JUMP JUMPDEST NOT DUP1 DUP4 AND SWAP2 POP POP SWAP3 SWAP2 POP POP JUMP JUMPDEST PUSH0 PUSH2 0x869 DUP4 DUP4 PUSH2 0x842 JUMP JUMPDEST SWAP2 POP DUP3 PUSH1 0x2 MUL DUP3 OR SWAP1 POP SWAP3 SWAP2 POP POP JUMP JUMPDEST PUSH2 0x882 DUP3 PUSH2 0x372 JUMP JUMPDEST PUSH8 0xFFFFFFFFFFFFFFFF DUP2 GT ISZERO PUSH2 0x89B JUMPI PUSH2 0x89A PUSH2 0x42E JUMP JUMPDEST JUMPDEST PUSH2 0x8A5 DUP3 SLOAD PUSH2 0x6AC JUMP JUMPDEST PUSH2 0x8B0 DUP3 DUP3 DUP6 PUSH2 0x7F0 JUMP JUMPDEST PUSH0 PUSH1 0x20 SWAP1 POP PUSH1 0x1F DUP4 GT PUSH1 0x1 DUP2 EQ PUSH2 0x8E1 JUMPI PUSH0 DUP5 ISZERO PUSH2 0x8CF JUMPI DUP3 DUP8 ADD MLOAD SWAP1 POP JUMPDEST PUSH2 0x8D9 DUP6 DUP3 PUSH2 0x85E JUMP JUMPDEST DUP7 SSTORE POP PUSH2 0x940 JUMP JUMPDEST PUSH1 0x1F NOT DUP5 AND PUSH2 0x8EF DUP7 PUSH2 0x6DC JUMP JUMPDEST PUSH0 JUMPDEST DUP3 DUP2 LT ISZERO PUSH2 0x916 JUMPI DUP5 DUP10 ADD MLOAD DUP3 SSTORE PUSH1 0x1 DUP3 ADD SWAP2 POP PUSH1 0x20 DUP6 ADD SWAP5 POP PUSH1 0x20 DUP2 ADD SWAP1 POP PUSH2 0x8F1 JUMP JUMPDEST DUP7 DUP4 LT ISZERO PUSH2 0x933 JUMPI DUP5 DUP10 ADD MLOAD PUSH2 0x92F PUSH1 0x1F DUP10 AND DUP3 PUSH2 0x842 JUMP JUMPDEST DUP4 SSTORE POP JUMPDEST PUSH1 0x1 PUSH1 0x2 DUP9 MUL ADD DUP9 SSTORE POP POP POP JUMPDEST POP POP POP POP POP POP JUMP JUMPDEST PUSH32 0x4E487B7100000000000000000000000000000000000000000000000000000000 PUSH0 MSTORE PUSH1 0x32 PUSH1 0x4 MSTORE PUSH1 0x24 PUSH0 REVERT JUMPDEST PUSH32 0x4E487B7100000000000000000000000000000000000000000000000000000000 PUSH0 MSTORE PUSH1 0x11 PUSH1 0x4 MSTORE PUSH1 0x24 PUSH0 REVERT JUMPDEST PUSH0 PUSH2 0x9AC DUP3 PUSH2 0x314 JUMP JUMPDEST SWAP2 POP PUSH32 0xFFFFFFFFFFFFFFFFFFFFFFFFFFFFFFFFFFFFFFFFFFFFFFFFFFFFFFFFFFFFFFFF DUP3 SUB PUSH2 0x9DE JUMPI PUSH2 0x9DD PUSH2 0x975 JUMP JUMPDEST JUMPDEST PUSH1 0x1 DUP3 ADD SWAP1 POP SWAP2 SWAP1 POP JUMP INVALID LOG2 PUSH5 0x6970667358 0x22 SLT KECCAK256 PUSH10 0x1DEC4BA563DCDF9BF275 0xC5 0xC7 DUP5 GASPRICE STATICCALL 0xAE 0xD6 0xD6 PUSH0 RETURN ADD 0xC7 MSTORE 0xC3 PUSH2 0xD6F6 0xB1 RETURNDATACOPY CODECOPY SWAP6 PUSH5 0x736F6C6343 STOP ADDMOD BYTE STOP CALLER "
		},
		"gasEstimates": {
			"creation": {
				"codeDepositCost": "518200",
				"executionCost": "5552",
				"totalCost": "523752"
			},
			"external": {
				"add(uint256)": "infinite",
				"addNames(string[])": "infinite",
				"coins()": "2447",
				"letsBreak(uint256)": "infinite",
				"stopWhen()": "infinite",
				"students(uint256)": "infinite"
			}
		},
		"methodIdentifiers": {
			"add(uint256)": "1003e2d2",
			"addNames(string[])": "4e303c60",
			"coins()": "22fcefbe",
			"letsBreak(uint256)": "e308ae72",
			"stopWhen()": "e1869a9f",
			"students(uint256)": "06ead22e"
		}
	},
	"abi": [
		{
			"inputs": [
				{
					"internalType": "uint256",
					"name": "_num",
					"type": "uint256"
				}
			],
			"name": "add",
			"outputs": [],
			"stateMutability": "nonpayable",
			"type": "function"
		},
		{
			"inputs": [
				{
					"internalType": "string[]",
					"name": "_names",
					"type": "string[]"
				}
			],
			"name": "addNames",
			"outputs": [],
			"stateMutability": "nonpayable",
			"type": "function"
		},
		{
			"inputs": [],
			"name": "coins",
			"outputs": [
				{
					"internalType": "uint256",
					"name": "",
					"type": "uint256"
				}
			],
			"stateMutability": "view",
			"type": "function"
		},
		{
			"inputs": [
				{
					"internalType": "uint256",
					"name": "_num",
					"type": "uint256"
				}
			],
			"name": "letsBreak",
			"outputs": [],
			"stateMutability": "nonpayable",
			"type": "function"
		},
		{
			"inputs": [],
			"name": "stopWhen",
			"outputs": [],
			"stateMutability": "nonpayable",
			"type": "function"
		},
		{
			"inputs": [
				{
					"internalType": "uint256",
					"name": "",
					"type": "uint256"
				}
			],
			"name": "students",
			"outputs": [
				{
					"internalType": "string",
					"name": "",
					"type": "string"
				}
			],
			"stateMutability": "view",
			"type": "function"
		}
	]
}